{
	"contracts/FundMe.sol": {
		"FundMe": {
			"abi": [
				{
					"inputs": [],
					"stateMutability": "nonpayable",
					"type": "constructor"
				},
				{
					"inputs": [
						{
							"internalType": "address",
							"name": "",
							"type": "address"
						}
					],
					"name": "addressToAmountFunded",
					"outputs": [
						{
							"internalType": "uint256",
							"name": "",
							"type": "uint256"
						}
					],
					"stateMutability": "view",
					"type": "function"
				},
				{
					"inputs": [],
					"name": "fund",
					"outputs": [],
					"stateMutability": "payable",
					"type": "function"
				},
				{
					"inputs": [
						{
							"internalType": "uint256",
							"name": "",
							"type": "uint256"
						}
					],
					"name": "funders",
					"outputs": [
						{
							"internalType": "address",
							"name": "",
							"type": "address"
						}
					],
					"stateMutability": "view",
					"type": "function"
				},
				{
					"inputs": [],
					"name": "i_owner",
					"outputs": [
						{
							"internalType": "address",
							"name": "",
							"type": "address"
						}
					],
					"stateMutability": "view",
					"type": "function"
				},
				{
					"inputs": [],
					"name": "minimumUsd",
					"outputs": [
						{
							"internalType": "uint256",
							"name": "",
							"type": "uint256"
						}
					],
					"stateMutability": "view",
					"type": "function"
				},
				{
					"inputs": [],
					"name": "withdraw",
					"outputs": [],
					"stateMutability": "nonpayable",
					"type": "function"
				}
			],
			"devdoc": {
				"kind": "dev",
				"methods": {},
				"version": 1
			},
			"evm": {
				"assembly": "    /* \"contracts/FundMe.sol\":176:1585  contract FundMe {... */\n  mstore(0x40, 0x80)\n    /* \"contracts/FundMe.sol\":471:524  constructor() {... */\n  callvalue\n  dup1\n  iszero\n  tag_1\n  jumpi\n  0x00\n  dup1\n  revert\ntag_1:\n  pop\n    /* \"contracts/FundMe.sol\":506:516  msg.sender */\n  caller\n    /* \"contracts/FundMe.sol\":496:503  i_owner */\n  0x02\n  0x00\n    /* \"contracts/FundMe.sol\":496:516  i_owner = msg.sender */\n  0x0100\n  exp\n  dup2\n  sload\n  dup2\n  0xffffffffffffffffffffffffffffffffffffffff\n  mul\n  not\n  and\n  swap1\n  dup4\n  0xffffffffffffffffffffffffffffffffffffffff\n  and\n  mul\n  or\n  swap1\n  sstore\n  pop\n    /* \"contracts/FundMe.sol\":176:1585  contract FundMe {... */\n  dataSize(sub_0)\n  dup1\n  dataOffset(sub_0)\n  0x00\n  codecopy\n  0x00\n  return\nstop\n\nsub_0: assembly {\n        /* \"contracts/FundMe.sol\":176:1585  contract FundMe {... */\n      mstore(0x40, 0x80)\n      jumpi(tag_1, lt(calldatasize, 0x04))\n      shr(0xe0, calldataload(0x00))\n      dup1\n      0x098de820\n      eq\n      tag_2\n      jumpi\n      dup1\n      0x3ccfd60b\n      eq\n      tag_3\n      jumpi\n      dup1\n      0x3e47d6f3\n      eq\n      tag_4\n      jumpi\n      dup1\n      0xb60d4288\n      eq\n      tag_5\n      jumpi\n      dup1\n      0xdba6335f\n      eq\n      tag_6\n      jumpi\n      dup1\n      0xdc0d3dff\n      eq\n      tag_7\n      jumpi\n    tag_1:\n      0x00\n      dup1\n      revert\n        /* \"contracts/FundMe.sol\":241:287  uint256 public constant minimumUsd = 50 * 1e18 */\n    tag_2:\n      callvalue\n      dup1\n      iszero\n      tag_8\n      jumpi\n      0x00\n      dup1\n      revert\n    tag_8:\n      pop\n      tag_9\n      tag_10\n      jump\t// in\n    tag_9:\n      mload(0x40)\n      tag_11\n      swap2\n      swap1\n      tag_12\n      jump\t// in\n    tag_11:\n      mload(0x40)\n      dup1\n      swap2\n      sub\n      swap1\n      return\n        /* \"contracts/FundMe.sol\":880:1470  function withdraw() public  onlyOwner{... */\n    tag_3:\n      callvalue\n      dup1\n      iszero\n      tag_13\n      jumpi\n      0x00\n      dup1\n      revert\n    tag_13:\n      pop\n      tag_14\n      tag_15\n      jump\t// in\n    tag_14:\n      stop\n        /* \"contracts/FundMe.sol\":331:387  mapping(address => uint256) public addressToAmountFunded */\n    tag_4:\n      callvalue\n      dup1\n      iszero\n      tag_16\n      jumpi\n      0x00\n      dup1\n      revert\n    tag_16:\n      pop\n      tag_17\n      0x04\n      dup1\n      calldatasize\n      sub\n      dup2\n      add\n      swap1\n      tag_18\n      swap2\n      swap1\n      tag_19\n      jump\t// in\n    tag_18:\n      tag_20\n      jump\t// in\n    tag_17:\n      mload(0x40)\n      tag_21\n      swap2\n      swap1\n      tag_12\n      jump\t// in\n    tag_21:\n      mload(0x40)\n      dup1\n      swap2\n      sub\n      swap1\n      return\n        /* \"contracts/FundMe.sol\":532:863  function fund() public payable {... */\n    tag_5:\n      tag_22\n      tag_23\n      jump\t// in\n    tag_22:\n      stop\n        /* \"contracts/FundMe.sol\":441:464  address public  i_owner */\n    tag_6:\n      callvalue\n      dup1\n      iszero\n      tag_24\n      jumpi\n      0x00\n      dup1\n      revert\n    tag_24:\n      pop\n      tag_25\n      tag_26\n      jump\t// in\n    tag_25:\n      mload(0x40)\n      tag_27\n      swap2\n      swap1\n      tag_28\n      jump\t// in\n    tag_27:\n      mload(0x40)\n      dup1\n      swap2\n      sub\n      swap1\n      return\n        /* \"contracts/FundMe.sol\":300:324  address[] public funders */\n    tag_7:\n      callvalue\n      dup1\n      iszero\n      tag_29\n      jumpi\n      0x00\n      dup1\n      revert\n    tag_29:\n      pop\n      tag_30\n      0x04\n      dup1\n      calldatasize\n      sub\n      dup2\n      add\n      swap1\n      tag_31\n      swap2\n      swap1\n      tag_32\n      jump\t// in\n    tag_31:\n      tag_33\n      jump\t// in\n    tag_30:\n      mload(0x40)\n      tag_34\n      swap2\n      swap1\n      tag_28\n      jump\t// in\n    tag_34:\n      mload(0x40)\n      dup1\n      swap2\n      sub\n      swap1\n      return\n        /* \"contracts/FundMe.sol\":241:287  uint256 public constant minimumUsd = 50 * 1e18 */\n    tag_10:\n        /* \"contracts/FundMe.sol\":278:287  50 * 1e18 */\n      0x02b5e3af16b1880000\n        /* \"contracts/FundMe.sol\":241:287  uint256 public constant minimumUsd = 50 * 1e18 */\n      dup2\n      jump\t// out\n        /* \"contracts/FundMe.sol\":880:1470  function withdraw() public  onlyOwner{... */\n    tag_15:\n        /* \"contracts/FundMe.sol\":1530:1537  i_owner */\n      0x02\n      0x00\n      swap1\n      sload\n      swap1\n      0x0100\n      exp\n      swap1\n      div\n      0xffffffffffffffffffffffffffffffffffffffff\n      and\n        /* \"contracts/FundMe.sol\":1516:1537  msg.sender == i_owner */\n      0xffffffffffffffffffffffffffffffffffffffff\n      and\n        /* \"contracts/FundMe.sol\":1516:1526  msg.sender */\n      caller\n        /* \"contracts/FundMe.sol\":1516:1537  msg.sender == i_owner */\n      0xffffffffffffffffffffffffffffffffffffffff\n      and\n      eq\n        /* \"contracts/FundMe.sol\":1508:1562  require(msg.sender == i_owner, \"Sender is not owner!\") */\n      tag_36\n      jumpi\n      mload(0x40)\n      0x08c379a000000000000000000000000000000000000000000000000000000000\n      dup2\n      mstore\n      0x04\n      add\n      tag_37\n      swap1\n      tag_38\n      jump\t// in\n    tag_37:\n      mload(0x40)\n      dup1\n      swap2\n      sub\n      swap1\n      revert\n    tag_36:\n        /* \"contracts/FundMe.sol\":998:1017  uint256 funderIndex */\n      0x00\n        /* \"contracts/FundMe.sol\":994:1194  for(uint256 funderIndex = 0; funderIndex < funders.length; funderIndex++) {... */\n    tag_40:\n        /* \"contracts/FundMe.sol\":1037:1044  funders */\n      0x00\n        /* \"contracts/FundMe.sol\":1037:1051  funders.length */\n      dup1\n      sload\n      swap1\n      pop\n        /* \"contracts/FundMe.sol\":1023:1034  funderIndex */\n      dup2\n        /* \"contracts/FundMe.sol\":1023:1051  funderIndex < funders.length */\n      lt\n        /* \"contracts/FundMe.sol\":994:1194  for(uint256 funderIndex = 0; funderIndex < funders.length; funderIndex++) {... */\n      iszero\n      tag_41\n      jumpi\n        /* \"contracts/FundMe.sol\":1097:1111  address funder */\n      0x00\n        /* \"contracts/FundMe.sol\":1114:1121  funders */\n      dup1\n        /* \"contracts/FundMe.sol\":1122:1133  funderIndex */\n      dup3\n        /* \"contracts/FundMe.sol\":1114:1134  funders[funderIndex] */\n      dup2\n      sload\n      dup2\n      lt\n      tag_43\n      jumpi\n      tag_44\n      tag_45\n      jump\t// in\n    tag_44:\n    tag_43:\n      swap1\n      0x00\n      mstore\n      keccak256(0x00, 0x20)\n      add\n      0x00\n      swap1\n      sload\n      swap1\n      0x0100\n      exp\n      swap1\n      div\n      0xffffffffffffffffffffffffffffffffffffffff\n      and\n        /* \"contracts/FundMe.sol\":1097:1134  address funder = funders[funderIndex] */\n      swap1\n      pop\n        /* \"contracts/FundMe.sol\":1181:1182  0 */\n      0x00\n        /* \"contracts/FundMe.sol\":1149:1170  addressToAmountFunded */\n      0x01\n        /* \"contracts/FundMe.sol\":1149:1178  addressToAmountFunded[funder] */\n      0x00\n        /* \"contracts/FundMe.sol\":1171:1177  funder */\n      dup4\n        /* \"contracts/FundMe.sol\":1149:1178  addressToAmountFunded[funder] */\n      0xffffffffffffffffffffffffffffffffffffffff\n      and\n      0xffffffffffffffffffffffffffffffffffffffff\n      and\n      dup2\n      mstore\n      0x20\n      add\n      swap1\n      dup2\n      mstore\n      0x20\n      add\n      0x00\n      keccak256\n        /* \"contracts/FundMe.sol\":1149:1182  addressToAmountFunded[funder] = 0 */\n      dup2\n      swap1\n      sstore\n      pop\n        /* \"contracts/FundMe.sol\":1068:1194  {... */\n      pop\n        /* \"contracts/FundMe.sol\":1053:1066  funderIndex++ */\n      dup1\n      dup1\n      0x01\n      add\n      swap2\n      pop\n      pop\n        /* \"contracts/FundMe.sol\":994:1194  for(uint256 funderIndex = 0; funderIndex < funders.length; funderIndex++) {... */\n      jump(tag_40)\n    tag_41:\n      pop\n        /* \"contracts/FundMe.sol\":1242:1258  bool callSuccess */\n      0x00\n        /* \"contracts/FundMe.sol\":1271:1281  msg.sender */\n      caller\n        /* \"contracts/FundMe.sol\":1263:1287  payable(msg.sender).call */\n      0xffffffffffffffffffffffffffffffffffffffff\n      and\n        /* \"contracts/FundMe.sol\":1295:1316  address(this).balance */\n      selfbalance\n        /* \"contracts/FundMe.sol\":1263:1321  payable(msg.sender).call{value: address(this).balance}(\"\") */\n      mload(0x40)\n      tag_47\n      swap1\n      tag_48\n      jump\t// in\n    tag_47:\n      0x00\n      mload(0x40)\n      dup1\n      dup4\n      sub\n      dup2\n      dup6\n      dup8\n      gas\n      call\n      swap3\n      pop\n      pop\n      pop\n      returndatasize\n      dup1\n      0x00\n      dup2\n      eq\n      tag_51\n      jumpi\n      mload(0x40)\n      swap2\n      pop\n      and(add(returndatasize, 0x3f), not(0x1f))\n      dup3\n      add\n      0x40\n      mstore\n      returndatasize\n      dup3\n      mstore\n      returndatasize\n      0x00\n      0x20\n      dup5\n      add\n      returndatacopy\n      jump(tag_50)\n    tag_51:\n      0x60\n      swap2\n      pop\n    tag_50:\n      pop\n        /* \"contracts/FundMe.sol\":1241:1321  (bool callSuccess, )= payable(msg.sender).call{value: address(this).balance}(\"\") */\n      pop\n      swap1\n      pop\n        /* \"contracts/FundMe.sol\":1340:1351  callSuccess */\n      dup1\n        /* \"contracts/FundMe.sol\":1332:1367  require(callSuccess, \"Call failed\") */\n      tag_52\n      jumpi\n      mload(0x40)\n      0x08c379a000000000000000000000000000000000000000000000000000000000\n      dup2\n      mstore\n      0x04\n      add\n      tag_53\n      swap1\n      tag_54\n      jump\t// in\n    tag_53:\n      mload(0x40)\n      dup1\n      swap2\n      sub\n      swap1\n      revert\n    tag_52:\n        /* \"contracts/FundMe.sol\":917:1470  {... */\n      pop\n        /* \"contracts/FundMe.sol\":880:1470  function withdraw() public  onlyOwner{... */\n      jump\t// out\n        /* \"contracts/FundMe.sol\":331:387  mapping(address => uint256) public addressToAmountFunded */\n    tag_20:\n      mstore(0x20, 0x01)\n      dup1\n      0x00\n      mstore\n      keccak256(0x00, 0x40)\n      0x00\n      swap2\n      pop\n      swap1\n      pop\n      sload\n      dup2\n      jump\t// out\n        /* \"contracts/FundMe.sol\":532:863  function fund() public payable {... */\n    tag_23:\n        /* \"contracts/FundMe.sol\":278:287  50 * 1e18 */\n      0x02b5e3af16b1880000\n        /* \"contracts/FundMe.sol\":686:715  msg.value.getConversionRate() */\n      tag_56\n        /* \"contracts/FundMe.sol\":686:695  msg.value */\n      callvalue\n        /* \"contracts/FundMe.sol\":686:713  msg.value.getConversionRate */\n      tag_57\n        /* \"contracts/FundMe.sol\":686:715  msg.value.getConversionRate() */\n      jump\t// in\n    tag_56:\n        /* \"contracts/FundMe.sol\":686:729  msg.value.getConversionRate() >= minimumUsd */\n      lt\n      iszero\n        /* \"contracts/FundMe.sol\":677:752  require (msg.value.getConversionRate() >= minimumUsd, \"Didn't send enough\") */\n      tag_58\n      jumpi\n      mload(0x40)\n      0x08c379a000000000000000000000000000000000000000000000000000000000\n      dup2\n      mstore\n      0x04\n      add\n      tag_59\n      swap1\n      tag_60\n      jump\t// in\n    tag_59:\n      mload(0x40)\n      dup1\n      swap2\n      sub\n      swap1\n      revert\n    tag_58:\n        /* \"contracts/FundMe.sol\":767:774  funders */\n      0x00\n        /* \"contracts/FundMe.sol\":780:790  msg.sender */\n      caller\n        /* \"contracts/FundMe.sol\":767:791  funders.push(msg.sender) */\n      swap1\n      dup1\n      0x01\n      dup2\n      sload\n      add\n      dup1\n      dup3\n      sstore\n      dup1\n      swap2\n      pop\n      pop\n      0x01\n      swap1\n      sub\n      swap1\n      0x00\n      mstore\n      keccak256(0x00, 0x20)\n      add\n      0x00\n      swap1\n      swap2\n      swap1\n      swap2\n      swap1\n      swap2\n      0x0100\n      exp\n      dup2\n      sload\n      dup2\n      0xffffffffffffffffffffffffffffffffffffffff\n      mul\n      not\n      and\n      swap1\n      dup4\n      0xffffffffffffffffffffffffffffffffffffffff\n      and\n      mul\n      or\n      swap1\n      sstore\n      pop\n        /* \"contracts/FundMe.sol\":842:851  msg.value */\n      callvalue\n        /* \"contracts/FundMe.sol\":806:827  addressToAmountFunded */\n      0x01\n        /* \"contracts/FundMe.sol\":806:839  addressToAmountFunded[msg.sender] */\n      0x00\n        /* \"contracts/FundMe.sol\":828:838  msg.sender */\n      caller\n        /* \"contracts/FundMe.sol\":806:839  addressToAmountFunded[msg.sender] */\n      0xffffffffffffffffffffffffffffffffffffffff\n      and\n      0xffffffffffffffffffffffffffffffffffffffff\n      and\n      dup2\n      mstore\n      0x20\n      add\n      swap1\n      dup2\n      mstore\n      0x20\n      add\n      0x00\n      keccak256\n        /* \"contracts/FundMe.sol\":806:851  addressToAmountFunded[msg.sender] = msg.value */\n      dup2\n      swap1\n      sstore\n      pop\n        /* \"contracts/FundMe.sol\":532:863  function fund() public payable {... */\n      jump\t// out\n        /* \"contracts/FundMe.sol\":441:464  address public  i_owner */\n    tag_26:\n      0x02\n      0x00\n      swap1\n      sload\n      swap1\n      0x0100\n      exp\n      swap1\n      div\n      0xffffffffffffffffffffffffffffffffffffffff\n      and\n      dup2\n      jump\t// out\n        /* \"contracts/FundMe.sol\":300:324  address[] public funders */\n    tag_33:\n      0x00\n      dup2\n      dup2\n      sload\n      dup2\n      lt\n      tag_62\n      jumpi\n      0x00\n      dup1\n      revert\n    tag_62:\n      swap1\n      0x00\n      mstore\n      keccak256(0x00, 0x20)\n      add\n      0x00\n      swap2\n      pop\n      sload\n      swap1\n      0x0100\n      exp\n      swap1\n      div\n      0xffffffffffffffffffffffffffffffffffffffff\n      and\n      dup2\n      jump\t// out\n        /* \"contracts/PriceConverter.sol\":666:890  function getConversionRate(uint256 ethAmount) internal  view returns (uint256) {... */\n    tag_57:\n        /* \"contracts/PriceConverter.sol\":736:743  uint256 */\n      0x00\n        /* \"contracts/PriceConverter.sol\":756:772  uint256 ethPrice */\n      dup1\n        /* \"contracts/PriceConverter.sol\":775:785  getPrice() */\n      tag_65\n        /* \"contracts/PriceConverter.sol\":775:783  getPrice */\n      tag_66\n        /* \"contracts/PriceConverter.sol\":775:785  getPrice() */\n      jump\t// in\n    tag_65:\n        /* \"contracts/PriceConverter.sol\":756:785  uint256 ethPrice = getPrice() */\n      swap1\n      pop\n        /* \"contracts/PriceConverter.sol\":796:818  uint256 ethAmountInUsd */\n      0x00\n        /* \"contracts/PriceConverter.sol\":846:850  1e18 */\n      0x0de0b6b3a7640000\n        /* \"contracts/PriceConverter.sol\":833:842  ethAmount */\n      dup5\n        /* \"contracts/PriceConverter.sol\":822:830  ethPrice */\n      dup4\n        /* \"contracts/PriceConverter.sol\":822:842  ethPrice * ethAmount */\n      tag_67\n      swap2\n      swap1\n      tag_68\n      jump\t// in\n    tag_67:\n        /* \"contracts/PriceConverter.sol\":821:850  (ethPrice * ethAmount) / 1e18 */\n      tag_69\n      swap2\n      swap1\n      tag_70\n      jump\t// in\n    tag_69:\n        /* \"contracts/PriceConverter.sol\":796:850  uint256 ethAmountInUsd = (ethPrice * ethAmount) / 1e18 */\n      swap1\n      pop\n        /* \"contracts/PriceConverter.sol\":868:882  ethAmountInUsd */\n      dup1\n        /* \"contracts/PriceConverter.sol\":861:882  return ethAmountInUsd */\n      swap3\n      pop\n      pop\n      pop\n        /* \"contracts/PriceConverter.sol\":666:890  function getConversionRate(uint256 ethAmount) internal  view returns (uint256) {... */\n      swap2\n      swap1\n      pop\n      jump\t// out\n        /* \"contracts/PriceConverter.sol\":172:440  function getPrice() internal  view returns (uint256) {... */\n    tag_66:\n        /* \"contracts/PriceConverter.sol\":216:223  uint256 */\n      0x00\n        /* \"contracts/PriceConverter.sol\":236:267  AggregatorV3Interface priceFeed */\n      dup1\n        /* \"contracts/PriceConverter.sol\":292:334  0x694AA1769357215DE4FAC081bf1f309aDC325306 */\n      0x694aa1769357215de4fac081bf1f309adc325306\n        /* \"contracts/PriceConverter.sol\":236:335  AggregatorV3Interface priceFeed = AggregatorV3Interface(0x694AA1769357215DE4FAC081bf1f309aDC325306) */\n      swap1\n      pop\n        /* \"contracts/PriceConverter.sol\":349:358  int price */\n      0x00\n        /* \"contracts/PriceConverter.sol\":366:375  priceFeed */\n      dup2\n        /* \"contracts/PriceConverter.sol\":366:391  priceFeed.latestRoundData */\n      0xffffffffffffffffffffffffffffffffffffffff\n      and\n      0xfeaf968c\n        /* \"contracts/PriceConverter.sol\":366:393  priceFeed.latestRoundData() */\n      mload(0x40)\n      dup2\n      0xffffffff\n      and\n      0xe0\n      shl\n      dup2\n      mstore\n      0x04\n      add\n      0xa0\n      mload(0x40)\n      dup1\n      dup4\n      sub\n      dup2\n      dup7\n      gas\n      staticcall\n      iszero\n      dup1\n      iszero\n      tag_73\n      jumpi\n      returndatasize\n      0x00\n      dup1\n      returndatacopy\n      revert(0x00, returndatasize)\n    tag_73:\n      pop\n      pop\n      pop\n      pop\n      mload(0x40)\n      returndatasize\n      not(0x1f)\n      0x1f\n      dup3\n      add\n      and\n      dup3\n      add\n      dup1\n      0x40\n      mstore\n      pop\n      dup2\n      add\n      swap1\n      tag_74\n      swap2\n      swap1\n      tag_75\n      jump\t// in\n    tag_74:\n        /* \"contracts/PriceConverter.sol\":346:393  (, int price,, ,) = priceFeed.latestRoundData() */\n      pop\n      pop\n      pop\n      swap2\n      pop\n      pop\n        /* \"contracts/PriceConverter.sol\":427:431  1e10 */\n      0x02540be400\n        /* \"contracts/PriceConverter.sol\":419:424  price */\n      dup2\n        /* \"contracts/PriceConverter.sol\":419:431  price * 1e10 */\n      tag_76\n      swap2\n      swap1\n      tag_77\n      jump\t// in\n    tag_76:\n        /* \"contracts/PriceConverter.sol\":404:432  return uint256(price * 1e10) */\n      swap3\n      pop\n      pop\n      pop\n        /* \"contracts/PriceConverter.sol\":172:440  function getPrice() internal  view returns (uint256) {... */\n      swap1\n      jump\t// out\n        /* \"#utility.yul\":7:84   */\n    tag_78:\n        /* \"#utility.yul\":44:51   */\n      0x00\n        /* \"#utility.yul\":73:78   */\n      dup2\n        /* \"#utility.yul\":62:78   */\n      swap1\n      pop\n        /* \"#utility.yul\":7:84   */\n      swap2\n      swap1\n      pop\n      jump\t// out\n        /* \"#utility.yul\":90:208   */\n    tag_79:\n        /* \"#utility.yul\":177:201   */\n      tag_112\n        /* \"#utility.yul\":195:200   */\n      dup2\n        /* \"#utility.yul\":177:201   */\n      tag_78\n      jump\t// in\n    tag_112:\n        /* \"#utility.yul\":172:175   */\n      dup3\n        /* \"#utility.yul\":165:202   */\n      mstore\n        /* \"#utility.yul\":90:208   */\n      pop\n      pop\n      jump\t// out\n        /* \"#utility.yul\":214:436   */\n    tag_12:\n        /* \"#utility.yul\":307:311   */\n      0x00\n        /* \"#utility.yul\":345:347   */\n      0x20\n        /* \"#utility.yul\":334:343   */\n      dup3\n        /* \"#utility.yul\":330:348   */\n      add\n        /* \"#utility.yul\":322:348   */\n      swap1\n      pop\n        /* \"#utility.yul\":358:429   */\n      tag_114\n        /* \"#utility.yul\":426:427   */\n      0x00\n        /* \"#utility.yul\":415:424   */\n      dup4\n        /* \"#utility.yul\":411:428   */\n      add\n        /* \"#utility.yul\":402:408   */\n      dup5\n        /* \"#utility.yul\":358:429   */\n      tag_79\n      jump\t// in\n    tag_114:\n        /* \"#utility.yul\":214:436   */\n      swap3\n      swap2\n      pop\n      pop\n      jump\t// out\n        /* \"#utility.yul\":523:640   */\n    tag_81:\n        /* \"#utility.yul\":632:633   */\n      0x00\n        /* \"#utility.yul\":629:630   */\n      dup1\n        /* \"#utility.yul\":622:634   */\n      revert\n        /* \"#utility.yul\":769:895   */\n    tag_83:\n        /* \"#utility.yul\":806:813   */\n      0x00\n        /* \"#utility.yul\":846:888   */\n      0xffffffffffffffffffffffffffffffffffffffff\n        /* \"#utility.yul\":839:844   */\n      dup3\n        /* \"#utility.yul\":835:889   */\n      and\n        /* \"#utility.yul\":824:889   */\n      swap1\n      pop\n        /* \"#utility.yul\":769:895   */\n      swap2\n      swap1\n      pop\n      jump\t// out\n        /* \"#utility.yul\":901:997   */\n    tag_84:\n        /* \"#utility.yul\":938:945   */\n      0x00\n        /* \"#utility.yul\":967:991   */\n      tag_120\n        /* \"#utility.yul\":985:990   */\n      dup3\n        /* \"#utility.yul\":967:991   */\n      tag_83\n      jump\t// in\n    tag_120:\n        /* \"#utility.yul\":956:991   */\n      swap1\n      pop\n        /* \"#utility.yul\":901:997   */\n      swap2\n      swap1\n      pop\n      jump\t// out\n        /* \"#utility.yul\":1003:1125   */\n    tag_85:\n        /* \"#utility.yul\":1076:1100   */\n      tag_122\n        /* \"#utility.yul\":1094:1099   */\n      dup2\n        /* \"#utility.yul\":1076:1100   */\n      tag_84\n      jump\t// in\n    tag_122:\n        /* \"#utility.yul\":1069:1074   */\n      dup2\n        /* \"#utility.yul\":1066:1101   */\n      eq\n        /* \"#utility.yul\":1056:1119   */\n      tag_123\n      jumpi\n        /* \"#utility.yul\":1115:1116   */\n      0x00\n        /* \"#utility.yul\":1112:1113   */\n      dup1\n        /* \"#utility.yul\":1105:1117   */\n      revert\n        /* \"#utility.yul\":1056:1119   */\n    tag_123:\n        /* \"#utility.yul\":1003:1125   */\n      pop\n      jump\t// out\n        /* \"#utility.yul\":1131:1270   */\n    tag_86:\n        /* \"#utility.yul\":1177:1182   */\n      0x00\n        /* \"#utility.yul\":1215:1221   */\n      dup2\n        /* \"#utility.yul\":1202:1222   */\n      calldataload\n        /* \"#utility.yul\":1193:1222   */\n      swap1\n      pop\n        /* \"#utility.yul\":1231:1264   */\n      tag_125\n        /* \"#utility.yul\":1258:1263   */\n      dup2\n        /* \"#utility.yul\":1231:1264   */\n      tag_85\n      jump\t// in\n    tag_125:\n        /* \"#utility.yul\":1131:1270   */\n      swap3\n      swap2\n      pop\n      pop\n      jump\t// out\n        /* \"#utility.yul\":1276:1605   */\n    tag_19:\n        /* \"#utility.yul\":1335:1341   */\n      0x00\n        /* \"#utility.yul\":1384:1386   */\n      0x20\n        /* \"#utility.yul\":1372:1381   */\n      dup3\n        /* \"#utility.yul\":1363:1370   */\n      dup5\n        /* \"#utility.yul\":1359:1382   */\n      sub\n        /* \"#utility.yul\":1355:1387   */\n      slt\n        /* \"#utility.yul\":1352:1471   */\n      iszero\n      tag_127\n      jumpi\n        /* \"#utility.yul\":1390:1469   */\n      tag_128\n      tag_81\n      jump\t// in\n    tag_128:\n        /* \"#utility.yul\":1352:1471   */\n    tag_127:\n        /* \"#utility.yul\":1510:1511   */\n      0x00\n        /* \"#utility.yul\":1535:1588   */\n      tag_129\n        /* \"#utility.yul\":1580:1587   */\n      dup5\n        /* \"#utility.yul\":1571:1577   */\n      dup3\n        /* \"#utility.yul\":1560:1569   */\n      dup6\n        /* \"#utility.yul\":1556:1578   */\n      add\n        /* \"#utility.yul\":1535:1588   */\n      tag_86\n      jump\t// in\n    tag_129:\n        /* \"#utility.yul\":1525:1588   */\n      swap2\n      pop\n        /* \"#utility.yul\":1481:1598   */\n      pop\n        /* \"#utility.yul\":1276:1605   */\n      swap3\n      swap2\n      pop\n      pop\n      jump\t// out\n        /* \"#utility.yul\":1611:1729   */\n    tag_87:\n        /* \"#utility.yul\":1698:1722   */\n      tag_131\n        /* \"#utility.yul\":1716:1721   */\n      dup2\n        /* \"#utility.yul\":1698:1722   */\n      tag_84\n      jump\t// in\n    tag_131:\n        /* \"#utility.yul\":1693:1696   */\n      dup3\n        /* \"#utility.yul\":1686:1723   */\n      mstore\n        /* \"#utility.yul\":1611:1729   */\n      pop\n      pop\n      jump\t// out\n        /* \"#utility.yul\":1735:1957   */\n    tag_28:\n        /* \"#utility.yul\":1828:1832   */\n      0x00\n        /* \"#utility.yul\":1866:1868   */\n      0x20\n        /* \"#utility.yul\":1855:1864   */\n      dup3\n        /* \"#utility.yul\":1851:1869   */\n      add\n        /* \"#utility.yul\":1843:1869   */\n      swap1\n      pop\n        /* \"#utility.yul\":1879:1950   */\n      tag_133\n        /* \"#utility.yul\":1947:1948   */\n      0x00\n        /* \"#utility.yul\":1936:1945   */\n      dup4\n        /* \"#utility.yul\":1932:1949   */\n      add\n        /* \"#utility.yul\":1923:1929   */\n      dup5\n        /* \"#utility.yul\":1879:1950   */\n      tag_87\n      jump\t// in\n    tag_133:\n        /* \"#utility.yul\":1735:1957   */\n      swap3\n      swap2\n      pop\n      pop\n      jump\t// out\n        /* \"#utility.yul\":1963:2085   */\n    tag_88:\n        /* \"#utility.yul\":2036:2060   */\n      tag_135\n        /* \"#utility.yul\":2054:2059   */\n      dup2\n        /* \"#utility.yul\":2036:2060   */\n      tag_78\n      jump\t// in\n    tag_135:\n        /* \"#utility.yul\":2029:2034   */\n      dup2\n        /* \"#utility.yul\":2026:2061   */\n      eq\n        /* \"#utility.yul\":2016:2079   */\n      tag_136\n      jumpi\n        /* \"#utility.yul\":2075:2076   */\n      0x00\n        /* \"#utility.yul\":2072:2073   */\n      dup1\n        /* \"#utility.yul\":2065:2077   */\n      revert\n        /* \"#utility.yul\":2016:2079   */\n    tag_136:\n        /* \"#utility.yul\":1963:2085   */\n      pop\n      jump\t// out\n        /* \"#utility.yul\":2091:2230   */\n    tag_89:\n        /* \"#utility.yul\":2137:2142   */\n      0x00\n        /* \"#utility.yul\":2175:2181   */\n      dup2\n        /* \"#utility.yul\":2162:2182   */\n      calldataload\n        /* \"#utility.yul\":2153:2182   */\n      swap1\n      pop\n        /* \"#utility.yul\":2191:2224   */\n      tag_138\n        /* \"#utility.yul\":2218:2223   */\n      dup2\n        /* \"#utility.yul\":2191:2224   */\n      tag_88\n      jump\t// in\n    tag_138:\n        /* \"#utility.yul\":2091:2230   */\n      swap3\n      swap2\n      pop\n      pop\n      jump\t// out\n        /* \"#utility.yul\":2236:2565   */\n    tag_32:\n        /* \"#utility.yul\":2295:2301   */\n      0x00\n        /* \"#utility.yul\":2344:2346   */\n      0x20\n        /* \"#utility.yul\":2332:2341   */\n      dup3\n        /* \"#utility.yul\":2323:2330   */\n      dup5\n        /* \"#utility.yul\":2319:2342   */\n      sub\n        /* \"#utility.yul\":2315:2347   */\n      slt\n        /* \"#utility.yul\":2312:2431   */\n      iszero\n      tag_140\n      jumpi\n        /* \"#utility.yul\":2350:2429   */\n      tag_141\n      tag_81\n      jump\t// in\n    tag_141:\n        /* \"#utility.yul\":2312:2431   */\n    tag_140:\n        /* \"#utility.yul\":2470:2471   */\n      0x00\n        /* \"#utility.yul\":2495:2548   */\n      tag_142\n        /* \"#utility.yul\":2540:2547   */\n      dup5\n        /* \"#utility.yul\":2531:2537   */\n      dup3\n        /* \"#utility.yul\":2520:2529   */\n      dup6\n        /* \"#utility.yul\":2516:2538   */\n      add\n        /* \"#utility.yul\":2495:2548   */\n      tag_89\n      jump\t// in\n    tag_142:\n        /* \"#utility.yul\":2485:2548   */\n      swap2\n      pop\n        /* \"#utility.yul\":2441:2558   */\n      pop\n        /* \"#utility.yul\":2236:2565   */\n      swap3\n      swap2\n      pop\n      pop\n      jump\t// out\n        /* \"#utility.yul\":2571:2740   */\n    tag_90:\n        /* \"#utility.yul\":2655:2666   */\n      0x00\n        /* \"#utility.yul\":2689:2695   */\n      dup3\n        /* \"#utility.yul\":2684:2687   */\n      dup3\n        /* \"#utility.yul\":2677:2696   */\n      mstore\n        /* \"#utility.yul\":2729:2733   */\n      0x20\n        /* \"#utility.yul\":2724:2727   */\n      dup3\n        /* \"#utility.yul\":2720:2734   */\n      add\n        /* \"#utility.yul\":2705:2734   */\n      swap1\n      pop\n        /* \"#utility.yul\":2571:2740   */\n      swap3\n      swap2\n      pop\n      pop\n      jump\t// out\n        /* \"#utility.yul\":2746:2916   */\n    tag_91:\n        /* \"#utility.yul\":2886:2908   */\n      0x53656e646572206973206e6f74206f776e657221000000000000000000000000\n        /* \"#utility.yul\":2882:2883   */\n      0x00\n        /* \"#utility.yul\":2874:2880   */\n      dup3\n        /* \"#utility.yul\":2870:2884   */\n      add\n        /* \"#utility.yul\":2863:2909   */\n      mstore\n        /* \"#utility.yul\":2746:2916   */\n      pop\n      jump\t// out\n        /* \"#utility.yul\":2922:3288   */\n    tag_92:\n        /* \"#utility.yul\":3064:3067   */\n      0x00\n        /* \"#utility.yul\":3085:3152   */\n      tag_146\n        /* \"#utility.yul\":3149:3151   */\n      0x14\n        /* \"#utility.yul\":3144:3147   */\n      dup4\n        /* \"#utility.yul\":3085:3152   */\n      tag_90\n      jump\t// in\n    tag_146:\n        /* \"#utility.yul\":3078:3152   */\n      swap2\n      pop\n        /* \"#utility.yul\":3161:3254   */\n      tag_147\n        /* \"#utility.yul\":3250:3253   */\n      dup3\n        /* \"#utility.yul\":3161:3254   */\n      tag_91\n      jump\t// in\n    tag_147:\n        /* \"#utility.yul\":3279:3281   */\n      0x20\n        /* \"#utility.yul\":3274:3277   */\n      dup3\n        /* \"#utility.yul\":3270:3282   */\n      add\n        /* \"#utility.yul\":3263:3282   */\n      swap1\n      pop\n        /* \"#utility.yul\":2922:3288   */\n      swap2\n      swap1\n      pop\n      jump\t// out\n        /* \"#utility.yul\":3294:3713   */\n    tag_38:\n        /* \"#utility.yul\":3460:3464   */\n      0x00\n        /* \"#utility.yul\":3498:3500   */\n      0x20\n        /* \"#utility.yul\":3487:3496   */\n      dup3\n        /* \"#utility.yul\":3483:3501   */\n      add\n        /* \"#utility.yul\":3475:3501   */\n      swap1\n      pop\n        /* \"#utility.yul\":3547:3556   */\n      dup2\n        /* \"#utility.yul\":3541:3545   */\n      dup2\n        /* \"#utility.yul\":3537:3557   */\n      sub\n        /* \"#utility.yul\":3533:3534   */\n      0x00\n        /* \"#utility.yul\":3522:3531   */\n      dup4\n        /* \"#utility.yul\":3518:3535   */\n      add\n        /* \"#utility.yul\":3511:3558   */\n      mstore\n        /* \"#utility.yul\":3575:3706   */\n      tag_149\n        /* \"#utility.yul\":3701:3705   */\n      dup2\n        /* \"#utility.yul\":3575:3706   */\n      tag_92\n      jump\t// in\n    tag_149:\n        /* \"#utility.yul\":3567:3706   */\n      swap1\n      pop\n        /* \"#utility.yul\":3294:3713   */\n      swap2\n      swap1\n      pop\n      jump\t// out\n        /* \"#utility.yul\":3719:3899   */\n    tag_45:\n        /* \"#utility.yul\":3767:3844   */\n      0x4e487b7100000000000000000000000000000000000000000000000000000000\n        /* \"#utility.yul\":3764:3765   */\n      0x00\n        /* \"#utility.yul\":3757:3845   */\n      mstore\n        /* \"#utility.yul\":3864:3868   */\n      0x32\n        /* \"#utility.yul\":3861:3862   */\n      0x04\n        /* \"#utility.yul\":3854:3869   */\n      mstore\n        /* \"#utility.yul\":3888:3892   */\n      0x24\n        /* \"#utility.yul\":3885:3886   */\n      0x00\n        /* \"#utility.yul\":3878:3893   */\n      revert\n        /* \"#utility.yul\":3905:4052   */\n    tag_93:\n        /* \"#utility.yul\":4006:4017   */\n      0x00\n        /* \"#utility.yul\":4043:4046   */\n      dup2\n        /* \"#utility.yul\":4028:4046   */\n      swap1\n      pop\n        /* \"#utility.yul\":3905:4052   */\n      swap3\n      swap2\n      pop\n      pop\n      jump\t// out\n        /* \"#utility.yul\":4058:4172   */\n    tag_94:\n      pop\n      jump\t// out\n        /* \"#utility.yul\":4178:4576   */\n    tag_95:\n        /* \"#utility.yul\":4337:4340   */\n      0x00\n        /* \"#utility.yul\":4358:4441   */\n      tag_154\n        /* \"#utility.yul\":4439:4440   */\n      0x00\n        /* \"#utility.yul\":4434:4437   */\n      dup4\n        /* \"#utility.yul\":4358:4441   */\n      tag_93\n      jump\t// in\n    tag_154:\n        /* \"#utility.yul\":4351:4441   */\n      swap2\n      pop\n        /* \"#utility.yul\":4450:4543   */\n      tag_155\n        /* \"#utility.yul\":4539:4542   */\n      dup3\n        /* \"#utility.yul\":4450:4543   */\n      tag_94\n      jump\t// in\n    tag_155:\n        /* \"#utility.yul\":4568:4569   */\n      0x00\n        /* \"#utility.yul\":4563:4566   */\n      dup3\n        /* \"#utility.yul\":4559:4570   */\n      add\n        /* \"#utility.yul\":4552:4570   */\n      swap1\n      pop\n        /* \"#utility.yul\":4178:4576   */\n      swap2\n      swap1\n      pop\n      jump\t// out\n        /* \"#utility.yul\":4582:4961   */\n    tag_48:\n        /* \"#utility.yul\":4766:4769   */\n      0x00\n        /* \"#utility.yul\":4788:4935   */\n      tag_157\n        /* \"#utility.yul\":4931:4934   */\n      dup3\n        /* \"#utility.yul\":4788:4935   */\n      tag_95\n      jump\t// in\n    tag_157:\n        /* \"#utility.yul\":4781:4935   */\n      swap2\n      pop\n        /* \"#utility.yul\":4952:4955   */\n      dup2\n        /* \"#utility.yul\":4945:4955   */\n      swap1\n      pop\n        /* \"#utility.yul\":4582:4961   */\n      swap2\n      swap1\n      pop\n      jump\t// out\n        /* \"#utility.yul\":4967:5128   */\n    tag_96:\n        /* \"#utility.yul\":5107:5120   */\n      0x43616c6c206661696c6564000000000000000000000000000000000000000000\n        /* \"#utility.yul\":5103:5104   */\n      0x00\n        /* \"#utility.yul\":5095:5101   */\n      dup3\n        /* \"#utility.yul\":5091:5105   */\n      add\n        /* \"#utility.yul\":5084:5121   */\n      mstore\n        /* \"#utility.yul\":4967:5128   */\n      pop\n      jump\t// out\n        /* \"#utility.yul\":5134:5500   */\n    tag_97:\n        /* \"#utility.yul\":5276:5279   */\n      0x00\n        /* \"#utility.yul\":5297:5364   */\n      tag_160\n        /* \"#utility.yul\":5361:5363   */\n      0x0b\n        /* \"#utility.yul\":5356:5359   */\n      dup4\n        /* \"#utility.yul\":5297:5364   */\n      tag_90\n      jump\t// in\n    tag_160:\n        /* \"#utility.yul\":5290:5364   */\n      swap2\n      pop\n        /* \"#utility.yul\":5373:5466   */\n      tag_161\n        /* \"#utility.yul\":5462:5465   */\n      dup3\n        /* \"#utility.yul\":5373:5466   */\n      tag_96\n      jump\t// in\n    tag_161:\n        /* \"#utility.yul\":5491:5493   */\n      0x20\n        /* \"#utility.yul\":5486:5489   */\n      dup3\n        /* \"#utility.yul\":5482:5494   */\n      add\n        /* \"#utility.yul\":5475:5494   */\n      swap1\n      pop\n        /* \"#utility.yul\":5134:5500   */\n      swap2\n      swap1\n      pop\n      jump\t// out\n        /* \"#utility.yul\":5506:5925   */\n    tag_54:\n        /* \"#utility.yul\":5672:5676   */\n      0x00\n        /* \"#utility.yul\":5710:5712   */\n      0x20\n        /* \"#utility.yul\":5699:5708   */\n      dup3\n        /* \"#utility.yul\":5695:5713   */\n      add\n        /* \"#utility.yul\":5687:5713   */\n      swap1\n      pop\n        /* \"#utility.yul\":5759:5768   */\n      dup2\n        /* \"#utility.yul\":5753:5757   */\n      dup2\n        /* \"#utility.yul\":5749:5769   */\n      sub\n        /* \"#utility.yul\":5745:5746   */\n      0x00\n        /* \"#utility.yul\":5734:5743   */\n      dup4\n        /* \"#utility.yul\":5730:5747   */\n      add\n        /* \"#utility.yul\":5723:5770   */\n      mstore\n        /* \"#utility.yul\":5787:5918   */\n      tag_163\n        /* \"#utility.yul\":5913:5917   */\n      dup2\n        /* \"#utility.yul\":5787:5918   */\n      tag_97\n      jump\t// in\n    tag_163:\n        /* \"#utility.yul\":5779:5918   */\n      swap1\n      pop\n        /* \"#utility.yul\":5506:5925   */\n      swap2\n      swap1\n      pop\n      jump\t// out\n        /* \"#utility.yul\":5931:6099   */\n    tag_98:\n        /* \"#utility.yul\":6071:6091   */\n      0x4469646e27742073656e6420656e6f7567680000000000000000000000000000\n        /* \"#utility.yul\":6067:6068   */\n      0x00\n        /* \"#utility.yul\":6059:6065   */\n      dup3\n        /* \"#utility.yul\":6055:6069   */\n      add\n        /* \"#utility.yul\":6048:6092   */\n      mstore\n        /* \"#utility.yul\":5931:6099   */\n      pop\n      jump\t// out\n        /* \"#utility.yul\":6105:6471   */\n    tag_99:\n        /* \"#utility.yul\":6247:6250   */\n      0x00\n        /* \"#utility.yul\":6268:6335   */\n      tag_166\n        /* \"#utility.yul\":6332:6334   */\n      0x12\n        /* \"#utility.yul\":6327:6330   */\n      dup4\n        /* \"#utility.yul\":6268:6335   */\n      tag_90\n      jump\t// in\n    tag_166:\n        /* \"#utility.yul\":6261:6335   */\n      swap2\n      pop\n        /* \"#utility.yul\":6344:6437   */\n      tag_167\n        /* \"#utility.yul\":6433:6436   */\n      dup3\n        /* \"#utility.yul\":6344:6437   */\n      tag_98\n      jump\t// in\n    tag_167:\n        /* \"#utility.yul\":6462:6464   */\n      0x20\n        /* \"#utility.yul\":6457:6460   */\n      dup3\n        /* \"#utility.yul\":6453:6465   */\n      add\n        /* \"#utility.yul\":6446:6465   */\n      swap1\n      pop\n        /* \"#utility.yul\":6105:6471   */\n      swap2\n      swap1\n      pop\n      jump\t// out\n        /* \"#utility.yul\":6477:6896   */\n    tag_60:\n        /* \"#utility.yul\":6643:6647   */\n      0x00\n        /* \"#utility.yul\":6681:6683   */\n      0x20\n        /* \"#utility.yul\":6670:6679   */\n      dup3\n        /* \"#utility.yul\":6666:6684   */\n      add\n        /* \"#utility.yul\":6658:6684   */\n      swap1\n      pop\n        /* \"#utility.yul\":6730:6739   */\n      dup2\n        /* \"#utility.yul\":6724:6728   */\n      dup2\n        /* \"#utility.yul\":6720:6740   */\n      sub\n        /* \"#utility.yul\":6716:6717   */\n      0x00\n        /* \"#utility.yul\":6705:6714   */\n      dup4\n        /* \"#utility.yul\":6701:6718   */\n      add\n        /* \"#utility.yul\":6694:6741   */\n      mstore\n        /* \"#utility.yul\":6758:6889   */\n      tag_169\n        /* \"#utility.yul\":6884:6888   */\n      dup2\n        /* \"#utility.yul\":6758:6889   */\n      tag_99\n      jump\t// in\n    tag_169:\n        /* \"#utility.yul\":6750:6889   */\n      swap1\n      pop\n        /* \"#utility.yul\":6477:6896   */\n      swap2\n      swap1\n      pop\n      jump\t// out\n        /* \"#utility.yul\":6902:7082   */\n    tag_100:\n        /* \"#utility.yul\":6950:7027   */\n      0x4e487b7100000000000000000000000000000000000000000000000000000000\n        /* \"#utility.yul\":6947:6948   */\n      0x00\n        /* \"#utility.yul\":6940:7028   */\n      mstore\n        /* \"#utility.yul\":7047:7051   */\n      0x11\n        /* \"#utility.yul\":7044:7045   */\n      0x04\n        /* \"#utility.yul\":7037:7052   */\n      mstore\n        /* \"#utility.yul\":7071:7075   */\n      0x24\n        /* \"#utility.yul\":7068:7069   */\n      0x00\n        /* \"#utility.yul\":7061:7076   */\n      revert\n        /* \"#utility.yul\":7088:7498   */\n    tag_68:\n        /* \"#utility.yul\":7128:7135   */\n      0x00\n        /* \"#utility.yul\":7151:7171   */\n      tag_172\n        /* \"#utility.yul\":7169:7170   */\n      dup3\n        /* \"#utility.yul\":7151:7171   */\n      tag_78\n      jump\t// in\n    tag_172:\n        /* \"#utility.yul\":7146:7171   */\n      swap2\n      pop\n        /* \"#utility.yul\":7185:7205   */\n      tag_173\n        /* \"#utility.yul\":7203:7204   */\n      dup4\n        /* \"#utility.yul\":7185:7205   */\n      tag_78\n      jump\t// in\n    tag_173:\n        /* \"#utility.yul\":7180:7205   */\n      swap3\n      pop\n        /* \"#utility.yul\":7240:7241   */\n      dup3\n        /* \"#utility.yul\":7237:7238   */\n      dup3\n        /* \"#utility.yul\":7233:7242   */\n      mul\n        /* \"#utility.yul\":7262:7292   */\n      tag_174\n        /* \"#utility.yul\":7280:7291   */\n      dup2\n        /* \"#utility.yul\":7262:7292   */\n      tag_78\n      jump\t// in\n    tag_174:\n        /* \"#utility.yul\":7251:7292   */\n      swap2\n      pop\n        /* \"#utility.yul\":7441:7442   */\n      dup3\n        /* \"#utility.yul\":7432:7439   */\n      dup3\n        /* \"#utility.yul\":7428:7443   */\n      div\n        /* \"#utility.yul\":7425:7426   */\n      dup5\n        /* \"#utility.yul\":7422:7444   */\n      eq\n        /* \"#utility.yul\":7402:7403   */\n      dup4\n        /* \"#utility.yul\":7395:7404   */\n      iszero\n        /* \"#utility.yul\":7375:7458   */\n      or\n        /* \"#utility.yul\":7352:7491   */\n      tag_175\n      jumpi\n        /* \"#utility.yul\":7471:7489   */\n      tag_176\n      tag_100\n      jump\t// in\n    tag_176:\n        /* \"#utility.yul\":7352:7491   */\n    tag_175:\n        /* \"#utility.yul\":7136:7498   */\n      pop\n        /* \"#utility.yul\":7088:7498   */\n      swap3\n      swap2\n      pop\n      pop\n      jump\t// out\n        /* \"#utility.yul\":7504:7684   */\n    tag_101:\n        /* \"#utility.yul\":7552:7629   */\n      0x4e487b7100000000000000000000000000000000000000000000000000000000\n        /* \"#utility.yul\":7549:7550   */\n      0x00\n        /* \"#utility.yul\":7542:7630   */\n      mstore\n        /* \"#utility.yul\":7649:7653   */\n      0x12\n        /* \"#utility.yul\":7646:7647   */\n      0x04\n        /* \"#utility.yul\":7639:7654   */\n      mstore\n        /* \"#utility.yul\":7673:7677   */\n      0x24\n        /* \"#utility.yul\":7670:7671   */\n      0x00\n        /* \"#utility.yul\":7663:7678   */\n      revert\n        /* \"#utility.yul\":7690:7875   */\n    tag_70:\n        /* \"#utility.yul\":7730:7731   */\n      0x00\n        /* \"#utility.yul\":7747:7767   */\n      tag_179\n        /* \"#utility.yul\":7765:7766   */\n      dup3\n        /* \"#utility.yul\":7747:7767   */\n      tag_78\n      jump\t// in\n    tag_179:\n        /* \"#utility.yul\":7742:7767   */\n      swap2\n      pop\n        /* \"#utility.yul\":7781:7801   */\n      tag_180\n        /* \"#utility.yul\":7799:7800   */\n      dup4\n        /* \"#utility.yul\":7781:7801   */\n      tag_78\n      jump\t// in\n    tag_180:\n        /* \"#utility.yul\":7776:7801   */\n      swap3\n      pop\n        /* \"#utility.yul\":7820:7821   */\n      dup3\n        /* \"#utility.yul\":7810:7845   */\n      tag_181\n      jumpi\n        /* \"#utility.yul\":7825:7843   */\n      tag_182\n      tag_101\n      jump\t// in\n    tag_182:\n        /* \"#utility.yul\":7810:7845   */\n    tag_181:\n        /* \"#utility.yul\":7867:7868   */\n      dup3\n        /* \"#utility.yul\":7864:7865   */\n      dup3\n        /* \"#utility.yul\":7860:7869   */\n      div\n        /* \"#utility.yul\":7855:7869   */\n      swap1\n      pop\n        /* \"#utility.yul\":7690:7875   */\n      swap3\n      swap2\n      pop\n      pop\n      jump\t// out\n        /* \"#utility.yul\":7881:7986   */\n    tag_102:\n        /* \"#utility.yul\":7917:7924   */\n      0x00\n        /* \"#utility.yul\":7957:7979   */\n      0xffffffffffffffffffff\n        /* \"#utility.yul\":7950:7955   */\n      dup3\n        /* \"#utility.yul\":7946:7980   */\n      and\n        /* \"#utility.yul\":7935:7980   */\n      swap1\n      pop\n        /* \"#utility.yul\":7881:7986   */\n      swap2\n      swap1\n      pop\n      jump\t// out\n        /* \"#utility.yul\":7992:8112   */\n    tag_103:\n        /* \"#utility.yul\":8064:8087   */\n      tag_185\n        /* \"#utility.yul\":8081:8086   */\n      dup2\n        /* \"#utility.yul\":8064:8087   */\n      tag_102\n      jump\t// in\n    tag_185:\n        /* \"#utility.yul\":8057:8062   */\n      dup2\n        /* \"#utility.yul\":8054:8088   */\n      eq\n        /* \"#utility.yul\":8044:8106   */\n      tag_186\n      jumpi\n        /* \"#utility.yul\":8102:8103   */\n      0x00\n        /* \"#utility.yul\":8099:8100   */\n      dup1\n        /* \"#utility.yul\":8092:8104   */\n      revert\n        /* \"#utility.yul\":8044:8106   */\n    tag_186:\n        /* \"#utility.yul\":7992:8112   */\n      pop\n      jump\t// out\n        /* \"#utility.yul\":8118:8259   */\n    tag_104:\n        /* \"#utility.yul\":8174:8179   */\n      0x00\n        /* \"#utility.yul\":8205:8211   */\n      dup2\n        /* \"#utility.yul\":8199:8212   */\n      mload\n        /* \"#utility.yul\":8190:8212   */\n      swap1\n      pop\n        /* \"#utility.yul\":8221:8253   */\n      tag_188\n        /* \"#utility.yul\":8247:8252   */\n      dup2\n        /* \"#utility.yul\":8221:8253   */\n      tag_103\n      jump\t// in\n    tag_188:\n        /* \"#utility.yul\":8118:8259   */\n      swap3\n      swap2\n      pop\n      pop\n      jump\t// out\n        /* \"#utility.yul\":8265:8341   */\n    tag_105:\n        /* \"#utility.yul\":8301:8308   */\n      0x00\n        /* \"#utility.yul\":8330:8335   */\n      dup2\n        /* \"#utility.yul\":8319:8335   */\n      swap1\n      pop\n        /* \"#utility.yul\":8265:8341   */\n      swap2\n      swap1\n      pop\n      jump\t// out\n        /* \"#utility.yul\":8347:8467   */\n    tag_106:\n        /* \"#utility.yul\":8419:8442   */\n      tag_191\n        /* \"#utility.yul\":8436:8441   */\n      dup2\n        /* \"#utility.yul\":8419:8442   */\n      tag_105\n      jump\t// in\n    tag_191:\n        /* \"#utility.yul\":8412:8417   */\n      dup2\n        /* \"#utility.yul\":8409:8443   */\n      eq\n        /* \"#utility.yul\":8399:8461   */\n      tag_192\n      jumpi\n        /* \"#utility.yul\":8457:8458   */\n      0x00\n        /* \"#utility.yul\":8454:8455   */\n      dup1\n        /* \"#utility.yul\":8447:8459   */\n      revert\n        /* \"#utility.yul\":8399:8461   */\n    tag_192:\n        /* \"#utility.yul\":8347:8467   */\n      pop\n      jump\t// out\n        /* \"#utility.yul\":8473:8614   */\n    tag_107:\n        /* \"#utility.yul\":8529:8534   */\n      0x00\n        /* \"#utility.yul\":8560:8566   */\n      dup2\n        /* \"#utility.yul\":8554:8567   */\n      mload\n        /* \"#utility.yul\":8545:8567   */\n      swap1\n      pop\n        /* \"#utility.yul\":8576:8608   */\n      tag_194\n        /* \"#utility.yul\":8602:8607   */\n      dup2\n        /* \"#utility.yul\":8576:8608   */\n      tag_106\n      jump\t// in\n    tag_194:\n        /* \"#utility.yul\":8473:8614   */\n      swap3\n      swap2\n      pop\n      pop\n      jump\t// out\n        /* \"#utility.yul\":8620:8763   */\n    tag_108:\n        /* \"#utility.yul\":8677:8682   */\n      0x00\n        /* \"#utility.yul\":8708:8714   */\n      dup2\n        /* \"#utility.yul\":8702:8715   */\n      mload\n        /* \"#utility.yul\":8693:8715   */\n      swap1\n      pop\n        /* \"#utility.yul\":8724:8757   */\n      tag_196\n        /* \"#utility.yul\":8751:8756   */\n      dup2\n        /* \"#utility.yul\":8724:8757   */\n      tag_88\n      jump\t// in\n    tag_196:\n        /* \"#utility.yul\":8620:8763   */\n      swap3\n      swap2\n      pop\n      pop\n      jump\t// out\n        /* \"#utility.yul\":8769:9740   */\n    tag_75:\n        /* \"#utility.yul\":8872:8878   */\n      0x00\n        /* \"#utility.yul\":8880:8886   */\n      dup1\n        /* \"#utility.yul\":8888:8894   */\n      0x00\n        /* \"#utility.yul\":8896:8902   */\n      dup1\n        /* \"#utility.yul\":8904:8910   */\n      0x00\n        /* \"#utility.yul\":8953:8956   */\n      0xa0\n        /* \"#utility.yul\":8941:8950   */\n      dup7\n        /* \"#utility.yul\":8932:8939   */\n      dup9\n        /* \"#utility.yul\":8928:8951   */\n      sub\n        /* \"#utility.yul\":8924:8957   */\n      slt\n        /* \"#utility.yul\":8921:9041   */\n      iszero\n      tag_198\n      jumpi\n        /* \"#utility.yul\":8960:9039   */\n      tag_199\n      tag_81\n      jump\t// in\n    tag_199:\n        /* \"#utility.yul\":8921:9041   */\n    tag_198:\n        /* \"#utility.yul\":9080:9081   */\n      0x00\n        /* \"#utility.yul\":9105:9168   */\n      tag_200\n        /* \"#utility.yul\":9160:9167   */\n      dup9\n        /* \"#utility.yul\":9151:9157   */\n      dup3\n        /* \"#utility.yul\":9140:9149   */\n      dup10\n        /* \"#utility.yul\":9136:9158   */\n      add\n        /* \"#utility.yul\":9105:9168   */\n      tag_104\n      jump\t// in\n    tag_200:\n        /* \"#utility.yul\":9095:9168   */\n      swap6\n      pop\n        /* \"#utility.yul\":9051:9178   */\n      pop\n        /* \"#utility.yul\":9217:9219   */\n      0x20\n        /* \"#utility.yul\":9243:9306   */\n      tag_201\n        /* \"#utility.yul\":9298:9305   */\n      dup9\n        /* \"#utility.yul\":9289:9295   */\n      dup3\n        /* \"#utility.yul\":9278:9287   */\n      dup10\n        /* \"#utility.yul\":9274:9296   */\n      add\n        /* \"#utility.yul\":9243:9306   */\n      tag_107\n      jump\t// in\n    tag_201:\n        /* \"#utility.yul\":9233:9306   */\n      swap5\n      pop\n        /* \"#utility.yul\":9188:9316   */\n      pop\n        /* \"#utility.yul\":9355:9357   */\n      0x40\n        /* \"#utility.yul\":9381:9445   */\n      tag_202\n        /* \"#utility.yul\":9437:9444   */\n      dup9\n        /* \"#utility.yul\":9428:9434   */\n      dup3\n        /* \"#utility.yul\":9417:9426   */\n      dup10\n        /* \"#utility.yul\":9413:9435   */\n      add\n        /* \"#utility.yul\":9381:9445   */\n      tag_108\n      jump\t// in\n    tag_202:\n        /* \"#utility.yul\":9371:9445   */\n      swap4\n      pop\n        /* \"#utility.yul\":9326:9455   */\n      pop\n        /* \"#utility.yul\":9494:9496   */\n      0x60\n        /* \"#utility.yul\":9520:9584   */\n      tag_203\n        /* \"#utility.yul\":9576:9583   */\n      dup9\n        /* \"#utility.yul\":9567:9573   */\n      dup3\n        /* \"#utility.yul\":9556:9565   */\n      dup10\n        /* \"#utility.yul\":9552:9574   */\n      add\n        /* \"#utility.yul\":9520:9584   */\n      tag_108\n      jump\t// in\n    tag_203:\n        /* \"#utility.yul\":9510:9584   */\n      swap3\n      pop\n        /* \"#utility.yul\":9465:9594   */\n      pop\n        /* \"#utility.yul\":9633:9636   */\n      0x80\n        /* \"#utility.yul\":9660:9723   */\n      tag_204\n        /* \"#utility.yul\":9715:9722   */\n      dup9\n        /* \"#utility.yul\":9706:9712   */\n      dup3\n        /* \"#utility.yul\":9695:9704   */\n      dup10\n        /* \"#utility.yul\":9691:9713   */\n      add\n        /* \"#utility.yul\":9660:9723   */\n      tag_104\n      jump\t// in\n    tag_204:\n        /* \"#utility.yul\":9650:9723   */\n      swap2\n      pop\n        /* \"#utility.yul\":9604:9733   */\n      pop\n        /* \"#utility.yul\":8769:9740   */\n      swap3\n      swap6\n      pop\n      swap3\n      swap6\n      swap1\n      swap4\n      pop\n      jump\t// out\n        /* \"#utility.yul\":9746:10302   */\n    tag_77:\n        /* \"#utility.yul\":9785:9792   */\n      0x00\n        /* \"#utility.yul\":9808:9827   */\n      tag_206\n        /* \"#utility.yul\":9825:9826   */\n      dup3\n        /* \"#utility.yul\":9808:9827   */\n      tag_105\n      jump\t// in\n    tag_206:\n        /* \"#utility.yul\":9803:9827   */\n      swap2\n      pop\n        /* \"#utility.yul\":9841:9860   */\n      tag_207\n        /* \"#utility.yul\":9858:9859   */\n      dup4\n        /* \"#utility.yul\":9841:9860   */\n      tag_105\n      jump\t// in\n    tag_207:\n        /* \"#utility.yul\":9836:9860   */\n      swap3\n      pop\n        /* \"#utility.yul\":9895:9896   */\n      dup3\n        /* \"#utility.yul\":9892:9893   */\n      dup3\n        /* \"#utility.yul\":9888:9897   */\n      mul\n        /* \"#utility.yul\":9917:9946   */\n      tag_208\n        /* \"#utility.yul\":9934:9945   */\n      dup2\n        /* \"#utility.yul\":9917:9946   */\n      tag_105\n      jump\t// in\n    tag_208:\n        /* \"#utility.yul\":9906:9946   */\n      swap2\n      pop\n        /* \"#utility.yul\":10004:10070   */\n      0x8000000000000000000000000000000000000000000000000000000000000000\n        /* \"#utility.yul\":10001:10002   */\n      dup5\n        /* \"#utility.yul\":9998:10071   */\n      eq\n        /* \"#utility.yul\":9994:9995   */\n      0x00\n        /* \"#utility.yul\":9991:9992   */\n      dup5\n        /* \"#utility.yul\":9987:9996   */\n      slt\n        /* \"#utility.yul\":9983:10072   */\n      and\n        /* \"#utility.yul\":9980:10095   */\n      iszero\n      tag_209\n      jumpi\n        /* \"#utility.yul\":10075:10093   */\n      tag_210\n      tag_100\n      jump\t// in\n    tag_210:\n        /* \"#utility.yul\":9980:10095   */\n    tag_209:\n        /* \"#utility.yul\":10245:10246   */\n      dup3\n        /* \"#utility.yul\":10236:10243   */\n      dup3\n        /* \"#utility.yul\":10231:10247   */\n      sdiv\n        /* \"#utility.yul\":10228:10229   */\n      dup5\n        /* \"#utility.yul\":10225:10248   */\n      eq\n        /* \"#utility.yul\":10205:10206   */\n      dup4\n        /* \"#utility.yul\":10198:10207   */\n      iszero\n        /* \"#utility.yul\":10178:10262   */\n      or\n        /* \"#utility.yul\":10155:10295   */\n      tag_211\n      jumpi\n        /* \"#utility.yul\":10275:10293   */\n      tag_212\n      tag_100\n      jump\t// in\n    tag_212:\n        /* \"#utility.yul\":10155:10295   */\n    tag_211:\n        /* \"#utility.yul\":9793:10302   */\n      pop\n        /* \"#utility.yul\":9746:10302   */\n      swap3\n      swap2\n      pop\n      pop\n      jump\t// out\n\n    auxdata: 0xa264697066735822122030183ff9fb64f257e1e83fadc613a84d9990ae950b74556696cadca02ea58c6864736f6c63430008160033\n}\n",
				"bytecode": {
					"linkReferences": {},
					"object": "608060405234801561000f575f80fd5b503360025f6101000a81548173ffffffffffffffffffffffffffffffffffffffff021916908373ffffffffffffffffffffffffffffffffffffffff160217905550610ad18061005d5f395ff3fe608060405260043610610054575f3560e01c8063098de820146100585780633ccfd60b146100825780633e47d6f314610098578063b60d4288146100d4578063dba6335f146100de578063dc0d3dff14610108575b5f80fd5b348015610063575f80fd5b5061006c610144565b6040516100799190610588565b60405180910390f35b34801561008d575f80fd5b50610096610151565b005b3480156100a3575f80fd5b506100be60048036038101906100b991906105ff565b610328565b6040516100cb9190610588565b60405180910390f35b6100dc61033d565b005b3480156100e9575f80fd5b506100f2610434565b6040516100ff9190610639565b60405180910390f35b348015610113575f80fd5b5061012e6004803603810190610129919061067c565b610459565b60405161013b9190610639565b60405180910390f35b6802b5e3af16b188000081565b60025f9054906101000a900473ffffffffffffffffffffffffffffffffffffffff1673ffffffffffffffffffffffffffffffffffffffff163373ffffffffffffffffffffffffffffffffffffffff16146101e0576040517f08c379a00000000000000000000000000000000000000000000000000000000081526004016101d790610701565b60405180910390fd5b5f5b5f8054905081101561027c575f8082815481106102025761020161071f565b5b905f5260205f20015f9054906101000a900473ffffffffffffffffffffffffffffffffffffffff1690505f60015f8373ffffffffffffffffffffffffffffffffffffffff1673ffffffffffffffffffffffffffffffffffffffff1681526020019081526020015f20819055505080806001019150506101e2565b505f3373ffffffffffffffffffffffffffffffffffffffff16476040516102a290610779565b5f6040518083038185875af1925050503d805f81146102dc576040519150601f19603f3d011682016040523d82523d5f602084013e6102e1565b606091505b5050905080610325576040517f08c379a000000000000000000000000000000000000000000000000000000000815260040161031c906107d7565b60405180910390fd5b50565b6001602052805f5260405f205f915090505481565b6802b5e3af16b188000061035034610493565b1015610391576040517f08c379a00000000000000000000000000000000000000000000000000000000081526004016103889061083f565b60405180910390fd5b5f33908060018154018082558091505060019003905f5260205f20015f9091909190916101000a81548173ffffffffffffffffffffffffffffffffffffffff021916908373ffffffffffffffffffffffffffffffffffffffff1602179055503460015f3373ffffffffffffffffffffffffffffffffffffffff1673ffffffffffffffffffffffffffffffffffffffff1681526020019081526020015f2081905550565b60025f9054906101000a900473ffffffffffffffffffffffffffffffffffffffff1681565b5f8181548110610467575f80fd5b905f5260205f20015f915054906101000a900473ffffffffffffffffffffffffffffffffffffffff1681565b5f8061049d6104cb565b90505f670de0b6b3a764000084836104b5919061088a565b6104bf91906108f8565b90508092505050919050565b5f8073694aa1769357215de4fac081bf1f309adc32530690505f8173ffffffffffffffffffffffffffffffffffffffff1663feaf968c6040518163ffffffff1660e01b815260040160a060405180830381865afa15801561052e573d5f803e3d5ffd5b505050506040513d601f19601f8201168201806040525081019061055291906109ae565b5050509150506402540be400816105699190610a25565b9250505090565b5f819050919050565b61058281610570565b82525050565b5f60208201905061059b5f830184610579565b92915050565b5f80fd5b5f73ffffffffffffffffffffffffffffffffffffffff82169050919050565b5f6105ce826105a5565b9050919050565b6105de816105c4565b81146105e8575f80fd5b50565b5f813590506105f9816105d5565b92915050565b5f60208284031215610614576106136105a1565b5b5f610621848285016105eb565b91505092915050565b610633816105c4565b82525050565b5f60208201905061064c5f83018461062a565b92915050565b61065b81610570565b8114610665575f80fd5b50565b5f8135905061067681610652565b92915050565b5f60208284031215610691576106906105a1565b5b5f61069e84828501610668565b91505092915050565b5f82825260208201905092915050565b7f53656e646572206973206e6f74206f776e6572210000000000000000000000005f82015250565b5f6106eb6014836106a7565b91506106f6826106b7565b602082019050919050565b5f6020820190508181035f830152610718816106df565b9050919050565b7f4e487b71000000000000000000000000000000000000000000000000000000005f52603260045260245ffd5b5f81905092915050565b50565b5f6107645f8361074c565b915061076f82610756565b5f82019050919050565b5f61078382610759565b9150819050919050565b7f43616c6c206661696c65640000000000000000000000000000000000000000005f82015250565b5f6107c1600b836106a7565b91506107cc8261078d565b602082019050919050565b5f6020820190508181035f8301526107ee816107b5565b9050919050565b7f4469646e27742073656e6420656e6f75676800000000000000000000000000005f82015250565b5f6108296012836106a7565b9150610834826107f5565b602082019050919050565b5f6020820190508181035f8301526108568161081d565b9050919050565b7f4e487b71000000000000000000000000000000000000000000000000000000005f52601160045260245ffd5b5f61089482610570565b915061089f83610570565b92508282026108ad81610570565b915082820484148315176108c4576108c361085d565b5b5092915050565b7f4e487b71000000000000000000000000000000000000000000000000000000005f52601260045260245ffd5b5f61090282610570565b915061090d83610570565b92508261091d5761091c6108cb565b5b828204905092915050565b5f69ffffffffffffffffffff82169050919050565b61094681610928565b8114610950575f80fd5b50565b5f815190506109618161093d565b92915050565b5f819050919050565b61097981610967565b8114610983575f80fd5b50565b5f8151905061099481610970565b92915050565b5f815190506109a881610652565b92915050565b5f805f805f60a086880312156109c7576109c66105a1565b5b5f6109d488828901610953565b95505060206109e588828901610986565b94505060406109f68882890161099a565b9350506060610a078882890161099a565b9250506080610a1888828901610953565b9150509295509295909350565b5f610a2f82610967565b9150610a3a83610967565b9250828202610a4881610967565b91507f800000000000000000000000000000000000000000000000000000000000000084145f84121615610a7f57610a7e61085d565b5b8282058414831517610a9457610a9361085d565b5b509291505056fea264697066735822122030183ff9fb64f257e1e83fadc613a84d9990ae950b74556696cadca02ea58c6864736f6c63430008160033",
					"opcodes": "PUSH1 0x80 PUSH1 0x40 MSTORE CALLVALUE DUP1 ISZERO PUSH2 0xF JUMPI PUSH0 DUP1 REVERT JUMPDEST POP CALLER PUSH1 0x2 PUSH0 PUSH2 0x100 EXP DUP2 SLOAD DUP2 PUSH20 0xFFFFFFFFFFFFFFFFFFFFFFFFFFFFFFFFFFFFFFFF MUL NOT AND SWAP1 DUP4 PUSH20 0xFFFFFFFFFFFFFFFFFFFFFFFFFFFFFFFFFFFFFFFF AND MUL OR SWAP1 SSTORE POP PUSH2 0xAD1 DUP1 PUSH2 0x5D PUSH0 CODECOPY PUSH0 RETURN INVALID PUSH1 0x80 PUSH1 0x40 MSTORE PUSH1 0x4 CALLDATASIZE LT PUSH2 0x54 JUMPI PUSH0 CALLDATALOAD PUSH1 0xE0 SHR DUP1 PUSH4 0x98DE820 EQ PUSH2 0x58 JUMPI DUP1 PUSH4 0x3CCFD60B EQ PUSH2 0x82 JUMPI DUP1 PUSH4 0x3E47D6F3 EQ PUSH2 0x98 JUMPI DUP1 PUSH4 0xB60D4288 EQ PUSH2 0xD4 JUMPI DUP1 PUSH4 0xDBA6335F EQ PUSH2 0xDE JUMPI DUP1 PUSH4 0xDC0D3DFF EQ PUSH2 0x108 JUMPI JUMPDEST PUSH0 DUP1 REVERT JUMPDEST CALLVALUE DUP1 ISZERO PUSH2 0x63 JUMPI PUSH0 DUP1 REVERT JUMPDEST POP PUSH2 0x6C PUSH2 0x144 JUMP JUMPDEST PUSH1 0x40 MLOAD PUSH2 0x79 SWAP2 SWAP1 PUSH2 0x588 JUMP JUMPDEST PUSH1 0x40 MLOAD DUP1 SWAP2 SUB SWAP1 RETURN JUMPDEST CALLVALUE DUP1 ISZERO PUSH2 0x8D JUMPI PUSH0 DUP1 REVERT JUMPDEST POP PUSH2 0x96 PUSH2 0x151 JUMP JUMPDEST STOP JUMPDEST CALLVALUE DUP1 ISZERO PUSH2 0xA3 JUMPI PUSH0 DUP1 REVERT JUMPDEST POP PUSH2 0xBE PUSH1 0x4 DUP1 CALLDATASIZE SUB DUP2 ADD SWAP1 PUSH2 0xB9 SWAP2 SWAP1 PUSH2 0x5FF JUMP JUMPDEST PUSH2 0x328 JUMP JUMPDEST PUSH1 0x40 MLOAD PUSH2 0xCB SWAP2 SWAP1 PUSH2 0x588 JUMP JUMPDEST PUSH1 0x40 MLOAD DUP1 SWAP2 SUB SWAP1 RETURN JUMPDEST PUSH2 0xDC PUSH2 0x33D JUMP JUMPDEST STOP JUMPDEST CALLVALUE DUP1 ISZERO PUSH2 0xE9 JUMPI PUSH0 DUP1 REVERT JUMPDEST POP PUSH2 0xF2 PUSH2 0x434 JUMP JUMPDEST PUSH1 0x40 MLOAD PUSH2 0xFF SWAP2 SWAP1 PUSH2 0x639 JUMP JUMPDEST PUSH1 0x40 MLOAD DUP1 SWAP2 SUB SWAP1 RETURN JUMPDEST CALLVALUE DUP1 ISZERO PUSH2 0x113 JUMPI PUSH0 DUP1 REVERT JUMPDEST POP PUSH2 0x12E PUSH1 0x4 DUP1 CALLDATASIZE SUB DUP2 ADD SWAP1 PUSH2 0x129 SWAP2 SWAP1 PUSH2 0x67C JUMP JUMPDEST PUSH2 0x459 JUMP JUMPDEST PUSH1 0x40 MLOAD PUSH2 0x13B SWAP2 SWAP1 PUSH2 0x639 JUMP JUMPDEST PUSH1 0x40 MLOAD DUP1 SWAP2 SUB SWAP1 RETURN JUMPDEST PUSH9 0x2B5E3AF16B1880000 DUP2 JUMP JUMPDEST PUSH1 0x2 PUSH0 SWAP1 SLOAD SWAP1 PUSH2 0x100 EXP SWAP1 DIV PUSH20 0xFFFFFFFFFFFFFFFFFFFFFFFFFFFFFFFFFFFFFFFF AND PUSH20 0xFFFFFFFFFFFFFFFFFFFFFFFFFFFFFFFFFFFFFFFF AND CALLER PUSH20 0xFFFFFFFFFFFFFFFFFFFFFFFFFFFFFFFFFFFFFFFF AND EQ PUSH2 0x1E0 JUMPI PUSH1 0x40 MLOAD PUSH32 0x8C379A000000000000000000000000000000000000000000000000000000000 DUP2 MSTORE PUSH1 0x4 ADD PUSH2 0x1D7 SWAP1 PUSH2 0x701 JUMP JUMPDEST PUSH1 0x40 MLOAD DUP1 SWAP2 SUB SWAP1 REVERT JUMPDEST PUSH0 JUMPDEST PUSH0 DUP1 SLOAD SWAP1 POP DUP2 LT ISZERO PUSH2 0x27C JUMPI PUSH0 DUP1 DUP3 DUP2 SLOAD DUP2 LT PUSH2 0x202 JUMPI PUSH2 0x201 PUSH2 0x71F JUMP JUMPDEST JUMPDEST SWAP1 PUSH0 MSTORE PUSH1 0x20 PUSH0 KECCAK256 ADD PUSH0 SWAP1 SLOAD SWAP1 PUSH2 0x100 EXP SWAP1 DIV PUSH20 0xFFFFFFFFFFFFFFFFFFFFFFFFFFFFFFFFFFFFFFFF AND SWAP1 POP PUSH0 PUSH1 0x1 PUSH0 DUP4 PUSH20 0xFFFFFFFFFFFFFFFFFFFFFFFFFFFFFFFFFFFFFFFF AND PUSH20 0xFFFFFFFFFFFFFFFFFFFFFFFFFFFFFFFFFFFFFFFF AND DUP2 MSTORE PUSH1 0x20 ADD SWAP1 DUP2 MSTORE PUSH1 0x20 ADD PUSH0 KECCAK256 DUP2 SWAP1 SSTORE POP POP DUP1 DUP1 PUSH1 0x1 ADD SWAP2 POP POP PUSH2 0x1E2 JUMP JUMPDEST POP PUSH0 CALLER PUSH20 0xFFFFFFFFFFFFFFFFFFFFFFFFFFFFFFFFFFFFFFFF AND SELFBALANCE PUSH1 0x40 MLOAD PUSH2 0x2A2 SWAP1 PUSH2 0x779 JUMP JUMPDEST PUSH0 PUSH1 0x40 MLOAD DUP1 DUP4 SUB DUP2 DUP6 DUP8 GAS CALL SWAP3 POP POP POP RETURNDATASIZE DUP1 PUSH0 DUP2 EQ PUSH2 0x2DC JUMPI PUSH1 0x40 MLOAD SWAP2 POP PUSH1 0x1F NOT PUSH1 0x3F RETURNDATASIZE ADD AND DUP3 ADD PUSH1 0x40 MSTORE RETURNDATASIZE DUP3 MSTORE RETURNDATASIZE PUSH0 PUSH1 0x20 DUP5 ADD RETURNDATACOPY PUSH2 0x2E1 JUMP JUMPDEST PUSH1 0x60 SWAP2 POP JUMPDEST POP POP SWAP1 POP DUP1 PUSH2 0x325 JUMPI PUSH1 0x40 MLOAD PUSH32 0x8C379A000000000000000000000000000000000000000000000000000000000 DUP2 MSTORE PUSH1 0x4 ADD PUSH2 0x31C SWAP1 PUSH2 0x7D7 JUMP JUMPDEST PUSH1 0x40 MLOAD DUP1 SWAP2 SUB SWAP1 REVERT JUMPDEST POP JUMP JUMPDEST PUSH1 0x1 PUSH1 0x20 MSTORE DUP1 PUSH0 MSTORE PUSH1 0x40 PUSH0 KECCAK256 PUSH0 SWAP2 POP SWAP1 POP SLOAD DUP2 JUMP JUMPDEST PUSH9 0x2B5E3AF16B1880000 PUSH2 0x350 CALLVALUE PUSH2 0x493 JUMP JUMPDEST LT ISZERO PUSH2 0x391 JUMPI PUSH1 0x40 MLOAD PUSH32 0x8C379A000000000000000000000000000000000000000000000000000000000 DUP2 MSTORE PUSH1 0x4 ADD PUSH2 0x388 SWAP1 PUSH2 0x83F JUMP JUMPDEST PUSH1 0x40 MLOAD DUP1 SWAP2 SUB SWAP1 REVERT JUMPDEST PUSH0 CALLER SWAP1 DUP1 PUSH1 0x1 DUP2 SLOAD ADD DUP1 DUP3 SSTORE DUP1 SWAP2 POP POP PUSH1 0x1 SWAP1 SUB SWAP1 PUSH0 MSTORE PUSH1 0x20 PUSH0 KECCAK256 ADD PUSH0 SWAP1 SWAP2 SWAP1 SWAP2 SWAP1 SWAP2 PUSH2 0x100 EXP DUP2 SLOAD DUP2 PUSH20 0xFFFFFFFFFFFFFFFFFFFFFFFFFFFFFFFFFFFFFFFF MUL NOT AND SWAP1 DUP4 PUSH20 0xFFFFFFFFFFFFFFFFFFFFFFFFFFFFFFFFFFFFFFFF AND MUL OR SWAP1 SSTORE POP CALLVALUE PUSH1 0x1 PUSH0 CALLER PUSH20 0xFFFFFFFFFFFFFFFFFFFFFFFFFFFFFFFFFFFFFFFF AND PUSH20 0xFFFFFFFFFFFFFFFFFFFFFFFFFFFFFFFFFFFFFFFF AND DUP2 MSTORE PUSH1 0x20 ADD SWAP1 DUP2 MSTORE PUSH1 0x20 ADD PUSH0 KECCAK256 DUP2 SWAP1 SSTORE POP JUMP JUMPDEST PUSH1 0x2 PUSH0 SWAP1 SLOAD SWAP1 PUSH2 0x100 EXP SWAP1 DIV PUSH20 0xFFFFFFFFFFFFFFFFFFFFFFFFFFFFFFFFFFFFFFFF AND DUP2 JUMP JUMPDEST PUSH0 DUP2 DUP2 SLOAD DUP2 LT PUSH2 0x467 JUMPI PUSH0 DUP1 REVERT JUMPDEST SWAP1 PUSH0 MSTORE PUSH1 0x20 PUSH0 KECCAK256 ADD PUSH0 SWAP2 POP SLOAD SWAP1 PUSH2 0x100 EXP SWAP1 DIV PUSH20 0xFFFFFFFFFFFFFFFFFFFFFFFFFFFFFFFFFFFFFFFF AND DUP2 JUMP JUMPDEST PUSH0 DUP1 PUSH2 0x49D PUSH2 0x4CB JUMP JUMPDEST SWAP1 POP PUSH0 PUSH8 0xDE0B6B3A7640000 DUP5 DUP4 PUSH2 0x4B5 SWAP2 SWAP1 PUSH2 0x88A JUMP JUMPDEST PUSH2 0x4BF SWAP2 SWAP1 PUSH2 0x8F8 JUMP JUMPDEST SWAP1 POP DUP1 SWAP3 POP POP POP SWAP2 SWAP1 POP JUMP JUMPDEST PUSH0 DUP1 PUSH20 0x694AA1769357215DE4FAC081BF1F309ADC325306 SWAP1 POP PUSH0 DUP2 PUSH20 0xFFFFFFFFFFFFFFFFFFFFFFFFFFFFFFFFFFFFFFFF AND PUSH4 0xFEAF968C PUSH1 0x40 MLOAD DUP2 PUSH4 0xFFFFFFFF AND PUSH1 0xE0 SHL DUP2 MSTORE PUSH1 0x4 ADD PUSH1 0xA0 PUSH1 0x40 MLOAD DUP1 DUP4 SUB DUP2 DUP7 GAS STATICCALL ISZERO DUP1 ISZERO PUSH2 0x52E JUMPI RETURNDATASIZE PUSH0 DUP1 RETURNDATACOPY RETURNDATASIZE PUSH0 REVERT JUMPDEST POP POP POP POP PUSH1 0x40 MLOAD RETURNDATASIZE PUSH1 0x1F NOT PUSH1 0x1F DUP3 ADD AND DUP3 ADD DUP1 PUSH1 0x40 MSTORE POP DUP2 ADD SWAP1 PUSH2 0x552 SWAP2 SWAP1 PUSH2 0x9AE JUMP JUMPDEST POP POP POP SWAP2 POP POP PUSH5 0x2540BE400 DUP2 PUSH2 0x569 SWAP2 SWAP1 PUSH2 0xA25 JUMP JUMPDEST SWAP3 POP POP POP SWAP1 JUMP JUMPDEST PUSH0 DUP2 SWAP1 POP SWAP2 SWAP1 POP JUMP JUMPDEST PUSH2 0x582 DUP2 PUSH2 0x570 JUMP JUMPDEST DUP3 MSTORE POP POP JUMP JUMPDEST PUSH0 PUSH1 0x20 DUP3 ADD SWAP1 POP PUSH2 0x59B PUSH0 DUP4 ADD DUP5 PUSH2 0x579 JUMP JUMPDEST SWAP3 SWAP2 POP POP JUMP JUMPDEST PUSH0 DUP1 REVERT JUMPDEST PUSH0 PUSH20 0xFFFFFFFFFFFFFFFFFFFFFFFFFFFFFFFFFFFFFFFF DUP3 AND SWAP1 POP SWAP2 SWAP1 POP JUMP JUMPDEST PUSH0 PUSH2 0x5CE DUP3 PUSH2 0x5A5 JUMP JUMPDEST SWAP1 POP SWAP2 SWAP1 POP JUMP JUMPDEST PUSH2 0x5DE DUP2 PUSH2 0x5C4 JUMP JUMPDEST DUP2 EQ PUSH2 0x5E8 JUMPI PUSH0 DUP1 REVERT JUMPDEST POP JUMP JUMPDEST PUSH0 DUP2 CALLDATALOAD SWAP1 POP PUSH2 0x5F9 DUP2 PUSH2 0x5D5 JUMP JUMPDEST SWAP3 SWAP2 POP POP JUMP JUMPDEST PUSH0 PUSH1 0x20 DUP3 DUP5 SUB SLT ISZERO PUSH2 0x614 JUMPI PUSH2 0x613 PUSH2 0x5A1 JUMP JUMPDEST JUMPDEST PUSH0 PUSH2 0x621 DUP5 DUP3 DUP6 ADD PUSH2 0x5EB JUMP JUMPDEST SWAP2 POP POP SWAP3 SWAP2 POP POP JUMP JUMPDEST PUSH2 0x633 DUP2 PUSH2 0x5C4 JUMP JUMPDEST DUP3 MSTORE POP POP JUMP JUMPDEST PUSH0 PUSH1 0x20 DUP3 ADD SWAP1 POP PUSH2 0x64C PUSH0 DUP4 ADD DUP5 PUSH2 0x62A JUMP JUMPDEST SWAP3 SWAP2 POP POP JUMP JUMPDEST PUSH2 0x65B DUP2 PUSH2 0x570 JUMP JUMPDEST DUP2 EQ PUSH2 0x665 JUMPI PUSH0 DUP1 REVERT JUMPDEST POP JUMP JUMPDEST PUSH0 DUP2 CALLDATALOAD SWAP1 POP PUSH2 0x676 DUP2 PUSH2 0x652 JUMP JUMPDEST SWAP3 SWAP2 POP POP JUMP JUMPDEST PUSH0 PUSH1 0x20 DUP3 DUP5 SUB SLT ISZERO PUSH2 0x691 JUMPI PUSH2 0x690 PUSH2 0x5A1 JUMP JUMPDEST JUMPDEST PUSH0 PUSH2 0x69E DUP5 DUP3 DUP6 ADD PUSH2 0x668 JUMP JUMPDEST SWAP2 POP POP SWAP3 SWAP2 POP POP JUMP JUMPDEST PUSH0 DUP3 DUP3 MSTORE PUSH1 0x20 DUP3 ADD SWAP1 POP SWAP3 SWAP2 POP POP JUMP JUMPDEST PUSH32 0x53656E646572206973206E6F74206F776E657221000000000000000000000000 PUSH0 DUP3 ADD MSTORE POP JUMP JUMPDEST PUSH0 PUSH2 0x6EB PUSH1 0x14 DUP4 PUSH2 0x6A7 JUMP JUMPDEST SWAP2 POP PUSH2 0x6F6 DUP3 PUSH2 0x6B7 JUMP JUMPDEST PUSH1 0x20 DUP3 ADD SWAP1 POP SWAP2 SWAP1 POP JUMP JUMPDEST PUSH0 PUSH1 0x20 DUP3 ADD SWAP1 POP DUP2 DUP2 SUB PUSH0 DUP4 ADD MSTORE PUSH2 0x718 DUP2 PUSH2 0x6DF JUMP JUMPDEST SWAP1 POP SWAP2 SWAP1 POP JUMP JUMPDEST PUSH32 0x4E487B7100000000000000000000000000000000000000000000000000000000 PUSH0 MSTORE PUSH1 0x32 PUSH1 0x4 MSTORE PUSH1 0x24 PUSH0 REVERT JUMPDEST PUSH0 DUP2 SWAP1 POP SWAP3 SWAP2 POP POP JUMP JUMPDEST POP JUMP JUMPDEST PUSH0 PUSH2 0x764 PUSH0 DUP4 PUSH2 0x74C JUMP JUMPDEST SWAP2 POP PUSH2 0x76F DUP3 PUSH2 0x756 JUMP JUMPDEST PUSH0 DUP3 ADD SWAP1 POP SWAP2 SWAP1 POP JUMP JUMPDEST PUSH0 PUSH2 0x783 DUP3 PUSH2 0x759 JUMP JUMPDEST SWAP2 POP DUP2 SWAP1 POP SWAP2 SWAP1 POP JUMP JUMPDEST PUSH32 0x43616C6C206661696C6564000000000000000000000000000000000000000000 PUSH0 DUP3 ADD MSTORE POP JUMP JUMPDEST PUSH0 PUSH2 0x7C1 PUSH1 0xB DUP4 PUSH2 0x6A7 JUMP JUMPDEST SWAP2 POP PUSH2 0x7CC DUP3 PUSH2 0x78D JUMP JUMPDEST PUSH1 0x20 DUP3 ADD SWAP1 POP SWAP2 SWAP1 POP JUMP JUMPDEST PUSH0 PUSH1 0x20 DUP3 ADD SWAP1 POP DUP2 DUP2 SUB PUSH0 DUP4 ADD MSTORE PUSH2 0x7EE DUP2 PUSH2 0x7B5 JUMP JUMPDEST SWAP1 POP SWAP2 SWAP1 POP JUMP JUMPDEST PUSH32 0x4469646E27742073656E6420656E6F7567680000000000000000000000000000 PUSH0 DUP3 ADD MSTORE POP JUMP JUMPDEST PUSH0 PUSH2 0x829 PUSH1 0x12 DUP4 PUSH2 0x6A7 JUMP JUMPDEST SWAP2 POP PUSH2 0x834 DUP3 PUSH2 0x7F5 JUMP JUMPDEST PUSH1 0x20 DUP3 ADD SWAP1 POP SWAP2 SWAP1 POP JUMP JUMPDEST PUSH0 PUSH1 0x20 DUP3 ADD SWAP1 POP DUP2 DUP2 SUB PUSH0 DUP4 ADD MSTORE PUSH2 0x856 DUP2 PUSH2 0x81D JUMP JUMPDEST SWAP1 POP SWAP2 SWAP1 POP JUMP JUMPDEST PUSH32 0x4E487B7100000000000000000000000000000000000000000000000000000000 PUSH0 MSTORE PUSH1 0x11 PUSH1 0x4 MSTORE PUSH1 0x24 PUSH0 REVERT JUMPDEST PUSH0 PUSH2 0x894 DUP3 PUSH2 0x570 JUMP JUMPDEST SWAP2 POP PUSH2 0x89F DUP4 PUSH2 0x570 JUMP JUMPDEST SWAP3 POP DUP3 DUP3 MUL PUSH2 0x8AD DUP2 PUSH2 0x570 JUMP JUMPDEST SWAP2 POP DUP3 DUP3 DIV DUP5 EQ DUP4 ISZERO OR PUSH2 0x8C4 JUMPI PUSH2 0x8C3 PUSH2 0x85D JUMP JUMPDEST JUMPDEST POP SWAP3 SWAP2 POP POP JUMP JUMPDEST PUSH32 0x4E487B7100000000000000000000000000000000000000000000000000000000 PUSH0 MSTORE PUSH1 0x12 PUSH1 0x4 MSTORE PUSH1 0x24 PUSH0 REVERT JUMPDEST PUSH0 PUSH2 0x902 DUP3 PUSH2 0x570 JUMP JUMPDEST SWAP2 POP PUSH2 0x90D DUP4 PUSH2 0x570 JUMP JUMPDEST SWAP3 POP DUP3 PUSH2 0x91D JUMPI PUSH2 0x91C PUSH2 0x8CB JUMP JUMPDEST JUMPDEST DUP3 DUP3 DIV SWAP1 POP SWAP3 SWAP2 POP POP JUMP JUMPDEST PUSH0 PUSH10 0xFFFFFFFFFFFFFFFFFFFF DUP3 AND SWAP1 POP SWAP2 SWAP1 POP JUMP JUMPDEST PUSH2 0x946 DUP2 PUSH2 0x928 JUMP JUMPDEST DUP2 EQ PUSH2 0x950 JUMPI PUSH0 DUP1 REVERT JUMPDEST POP JUMP JUMPDEST PUSH0 DUP2 MLOAD SWAP1 POP PUSH2 0x961 DUP2 PUSH2 0x93D JUMP JUMPDEST SWAP3 SWAP2 POP POP JUMP JUMPDEST PUSH0 DUP2 SWAP1 POP SWAP2 SWAP1 POP JUMP JUMPDEST PUSH2 0x979 DUP2 PUSH2 0x967 JUMP JUMPDEST DUP2 EQ PUSH2 0x983 JUMPI PUSH0 DUP1 REVERT JUMPDEST POP JUMP JUMPDEST PUSH0 DUP2 MLOAD SWAP1 POP PUSH2 0x994 DUP2 PUSH2 0x970 JUMP JUMPDEST SWAP3 SWAP2 POP POP JUMP JUMPDEST PUSH0 DUP2 MLOAD SWAP1 POP PUSH2 0x9A8 DUP2 PUSH2 0x652 JUMP JUMPDEST SWAP3 SWAP2 POP POP JUMP JUMPDEST PUSH0 DUP1 PUSH0 DUP1 PUSH0 PUSH1 0xA0 DUP7 DUP9 SUB SLT ISZERO PUSH2 0x9C7 JUMPI PUSH2 0x9C6 PUSH2 0x5A1 JUMP JUMPDEST JUMPDEST PUSH0 PUSH2 0x9D4 DUP9 DUP3 DUP10 ADD PUSH2 0x953 JUMP JUMPDEST SWAP6 POP POP PUSH1 0x20 PUSH2 0x9E5 DUP9 DUP3 DUP10 ADD PUSH2 0x986 JUMP JUMPDEST SWAP5 POP POP PUSH1 0x40 PUSH2 0x9F6 DUP9 DUP3 DUP10 ADD PUSH2 0x99A JUMP JUMPDEST SWAP4 POP POP PUSH1 0x60 PUSH2 0xA07 DUP9 DUP3 DUP10 ADD PUSH2 0x99A JUMP JUMPDEST SWAP3 POP POP PUSH1 0x80 PUSH2 0xA18 DUP9 DUP3 DUP10 ADD PUSH2 0x953 JUMP JUMPDEST SWAP2 POP POP SWAP3 SWAP6 POP SWAP3 SWAP6 SWAP1 SWAP4 POP JUMP JUMPDEST PUSH0 PUSH2 0xA2F DUP3 PUSH2 0x967 JUMP JUMPDEST SWAP2 POP PUSH2 0xA3A DUP4 PUSH2 0x967 JUMP JUMPDEST SWAP3 POP DUP3 DUP3 MUL PUSH2 0xA48 DUP2 PUSH2 0x967 JUMP JUMPDEST SWAP2 POP PUSH32 0x8000000000000000000000000000000000000000000000000000000000000000 DUP5 EQ PUSH0 DUP5 SLT AND ISZERO PUSH2 0xA7F JUMPI PUSH2 0xA7E PUSH2 0x85D JUMP JUMPDEST JUMPDEST DUP3 DUP3 SDIV DUP5 EQ DUP4 ISZERO OR PUSH2 0xA94 JUMPI PUSH2 0xA93 PUSH2 0x85D JUMP JUMPDEST JUMPDEST POP SWAP3 SWAP2 POP POP JUMP INVALID LOG2 PUSH5 0x6970667358 0x22 SLT KECCAK256 ADDRESS XOR EXTCODEHASH 0xF9 0xFB PUSH5 0xF257E1E83F 0xAD 0xC6 SGT 0xA8 0x4D SWAP10 SWAP1 0xAE SWAP6 SIGNEXTEND PUSH21 0x556696CADCA02EA58C6864736F6C63430008160033 "
				},
				"gasEstimates": {
					"creation": {
						"codeDepositCost": "553800",
						"executionCost": "24850",
						"totalCost": "578650"
					},
					"external": {
						"addressToAmountFunded(address)": "2824",
						"fund()": "infinite",
						"funders(uint256)": "5031",
						"i_owner()": "2574",
						"minimumUsd()": "303",
						"withdraw()": "infinite"
					}
				},
				"methodIdentifiers": {
					"addressToAmountFunded(address)": "3e47d6f3",
					"fund()": "b60d4288",
					"funders(uint256)": "dc0d3dff",
					"i_owner()": "dba6335f",
					"minimumUsd()": "098de820",
					"withdraw()": "3ccfd60b"
				}
			},
			"storageLayout": {
				"storage": [
					{
						"astId": 59,
						"contract": "contracts/FundMe.sol:FundMe",
						"label": "funders",
						"offset": 0,
						"slot": "0",
						"type": "t_array(t_address)dyn_storage"
					},
					{
						"astId": 63,
						"contract": "contracts/FundMe.sol:FundMe",
						"label": "addressToAmountFunded",
						"offset": 0,
						"slot": "1",
						"type": "t_mapping(t_address,t_uint256)"
					},
					{
						"astId": 65,
						"contract": "contracts/FundMe.sol:FundMe",
						"label": "i_owner",
						"offset": 0,
						"slot": "2",
						"type": "t_address"
					}
				],
				"types": {
					"t_address": {
						"encoding": "inplace",
						"label": "address",
						"numberOfBytes": "20"
					},
					"t_array(t_address)dyn_storage": {
						"base": "t_address",
						"encoding": "dynamic_array",
						"label": "address[]",
						"numberOfBytes": "32"
					},
					"t_mapping(t_address,t_uint256)": {
						"encoding": "mapping",
						"key": "t_address",
						"label": "mapping(address => uint256)",
						"numberOfBytes": "32",
						"value": "t_uint256"
					},
					"t_uint256": {
						"encoding": "inplace",
						"label": "uint256",
						"numberOfBytes": "32"
					}
				}
			},
			"userdoc": {
				"kind": "user",
				"methods": {},
				"version": 1
			}
		}
	}
}