{
	"data": {
		"bytecode": {
			"linkReferences": {},
			"object": "608060405234801561000f575f80fd5b506109f08061001d5f395ff3fe608060405234801561000f575f80fd5b506004361061004a575f3560e01c80632e64cec11461004e57806342233cc21461006c5780636057361d146100885780639e7a13ad146100a4575b5f80fd5b6100566100d8565b604051610063919061038b565b60405180910390f35b6100866004803603810190610081919061051b565b6100e0565b005b6100a2600480360381019061009d91906105e6565b610191565b005b6100be60048036038101906100b991906105e6565b6101a0565b6040516100cf95949392919061068b565b60405180910390f35b5f8054905090565b5f6040518060a00160405280868152602001878152602001858152602001848152602001838152509050600181908060018154018082558091505060019003905f5260205f2090600502015f909190919091505f820151815f0155602082015181600101908161015091906108eb565b50604082015181600201908161016691906108eb565b50606082015181600301908161017c91906108eb565b50608082015181600401555050505050505050565b805f819055505f600590505050565b600181815481106101af575f80fd5b905f5260205f2090600502015f91509050805f0154908060010180546101d49061071e565b80601f01602080910402602001604051908101604052809291908181526020018280546102009061071e565b801561024b5780601f106102225761010080835404028352916020019161024b565b820191905f5260205f20905b81548152906001019060200180831161022e57829003601f168201915b5050505050908060020180546102609061071e565b80601f016020809104026020016040519081016040528092919081815260200182805461028c9061071e565b80156102d75780601f106102ae576101008083540402835291602001916102d7565b820191905f5260205f20905b8154815290600101906020018083116102ba57829003601f168201915b5050505050908060030180546102ec9061071e565b80601f01602080910402602001604051908101604052809291908181526020018280546103189061071e565b80156103635780601f1061033a57610100808354040283529160200191610363565b820191905f5260205f20905b81548152906001019060200180831161034657829003601f168201915b5050505050908060040154905085565b5f819050919050565b61038581610373565b82525050565b5f60208201905061039e5f83018461037c565b92915050565b5f604051905090565b5f80fd5b5f80fd5b5f80fd5b5f80fd5b5f601f19601f8301169050919050565b7f4e487b71000000000000000000000000000000000000000000000000000000005f52604160045260245ffd5b610403826103bd565b810181811067ffffffffffffffff82111715610422576104216103cd565b5b80604052505050565b5f6104346103a4565b905061044082826103fa565b919050565b5f67ffffffffffffffff82111561045f5761045e6103cd565b5b610468826103bd565b9050602081019050919050565b828183375f83830152505050565b5f61049561049084610445565b61042b565b9050828152602081018484840111156104b1576104b06103b9565b5b6104bc848285610475565b509392505050565b5f82601f8301126104d8576104d76103b5565b5b81356104e8848260208601610483565b91505092915050565b6104fa81610373565b8114610504575f80fd5b50565b5f81359050610515816104f1565b92915050565b5f805f805f60a08688031215610534576105336103ad565b5b5f86013567ffffffffffffffff811115610551576105506103b1565b5b61055d888289016104c4565b955050602061056e88828901610507565b945050604086013567ffffffffffffffff81111561058f5761058e6103b1565b5b61059b888289016104c4565b935050606086013567ffffffffffffffff8111156105bc576105bb6103b1565b5b6105c8888289016104c4565b92505060806105d988828901610507565b9150509295509295909350565b5f602082840312156105fb576105fa6103ad565b5b5f61060884828501610507565b91505092915050565b5f81519050919050565b5f82825260208201905092915050565b5f5b8381101561064857808201518184015260208101905061062d565b5f8484015250505050565b5f61065d82610611565b610667818561061b565b935061067781856020860161062b565b610680816103bd565b840191505092915050565b5f60a08201905061069e5f83018861037c565b81810360208301526106b08187610653565b905081810360408301526106c48186610653565b905081810360608301526106d88185610653565b90506106e7608083018461037c565b9695505050505050565b7f4e487b71000000000000000000000000000000000000000000000000000000005f52602260045260245ffd5b5f600282049050600182168061073557607f821691505b602082108103610748576107476106f1565b5b50919050565b5f819050815f5260205f209050919050565b5f6020601f8301049050919050565b5f82821b905092915050565b5f600883026107aa7fffffffffffffffffffffffffffffffffffffffffffffffffffffffffffffffff8261076f565b6107b4868361076f565b95508019841693508086168417925050509392505050565b5f819050919050565b5f6107ef6107ea6107e584610373565b6107cc565b610373565b9050919050565b5f819050919050565b610808836107d5565b61081c610814826107f6565b84845461077b565b825550505050565b5f90565b610830610824565b61083b8184846107ff565b505050565b5b8181101561085e576108535f82610828565b600181019050610841565b5050565b601f8211156108a3576108748161074e565b61087d84610760565b8101602085101561088c578190505b6108a061089885610760565b830182610840565b50505b505050565b5f82821c905092915050565b5f6108c35f19846008026108a8565b1980831691505092915050565b5f6108db83836108b4565b9150826002028217905092915050565b6108f482610611565b67ffffffffffffffff81111561090d5761090c6103cd565b5b610917825461071e565b610922828285610862565b5f60209050601f831160018114610953575f8415610941578287015190505b61094b85826108d0565b8655506109b2565b601f1984166109618661074e565b5f5b8281101561098857848901518255600182019150602085019450602081019050610963565b868310156109a557848901516109a1601f8916826108b4565b8355505b6001600288020188555050505b50505050505056fea26469706673582212208241d53d0373a456598c0dc198395a14b8ce100817c09b3238941a6959e5420564736f6c63430008170033",
			"opcodes": "PUSH1 0x80 PUSH1 0x40 MSTORE CALLVALUE DUP1 ISZERO PUSH2 0xF JUMPI PUSH0 DUP1 REVERT JUMPDEST POP PUSH2 0x9F0 DUP1 PUSH2 0x1D PUSH0 CODECOPY PUSH0 RETURN INVALID PUSH1 0x80 PUSH1 0x40 MSTORE CALLVALUE DUP1 ISZERO PUSH2 0xF JUMPI PUSH0 DUP1 REVERT JUMPDEST POP PUSH1 0x4 CALLDATASIZE LT PUSH2 0x4A JUMPI PUSH0 CALLDATALOAD PUSH1 0xE0 SHR DUP1 PUSH4 0x2E64CEC1 EQ PUSH2 0x4E JUMPI DUP1 PUSH4 0x42233CC2 EQ PUSH2 0x6C JUMPI DUP1 PUSH4 0x6057361D EQ PUSH2 0x88 JUMPI DUP1 PUSH4 0x9E7A13AD EQ PUSH2 0xA4 JUMPI JUMPDEST PUSH0 DUP1 REVERT JUMPDEST PUSH2 0x56 PUSH2 0xD8 JUMP JUMPDEST PUSH1 0x40 MLOAD PUSH2 0x63 SWAP2 SWAP1 PUSH2 0x38B JUMP JUMPDEST PUSH1 0x40 MLOAD DUP1 SWAP2 SUB SWAP1 RETURN JUMPDEST PUSH2 0x86 PUSH1 0x4 DUP1 CALLDATASIZE SUB DUP2 ADD SWAP1 PUSH2 0x81 SWAP2 SWAP1 PUSH2 0x51B JUMP JUMPDEST PUSH2 0xE0 JUMP JUMPDEST STOP JUMPDEST PUSH2 0xA2 PUSH1 0x4 DUP1 CALLDATASIZE SUB DUP2 ADD SWAP1 PUSH2 0x9D SWAP2 SWAP1 PUSH2 0x5E6 JUMP JUMPDEST PUSH2 0x191 JUMP JUMPDEST STOP JUMPDEST PUSH2 0xBE PUSH1 0x4 DUP1 CALLDATASIZE SUB DUP2 ADD SWAP1 PUSH2 0xB9 SWAP2 SWAP1 PUSH2 0x5E6 JUMP JUMPDEST PUSH2 0x1A0 JUMP JUMPDEST PUSH1 0x40 MLOAD PUSH2 0xCF SWAP6 SWAP5 SWAP4 SWAP3 SWAP2 SWAP1 PUSH2 0x68B JUMP JUMPDEST PUSH1 0x40 MLOAD DUP1 SWAP2 SUB SWAP1 RETURN JUMPDEST PUSH0 DUP1 SLOAD SWAP1 POP SWAP1 JUMP JUMPDEST PUSH0 PUSH1 0x40 MLOAD DUP1 PUSH1 0xA0 ADD PUSH1 0x40 MSTORE DUP1 DUP7 DUP2 MSTORE PUSH1 0x20 ADD DUP8 DUP2 MSTORE PUSH1 0x20 ADD DUP6 DUP2 MSTORE PUSH1 0x20 ADD DUP5 DUP2 MSTORE PUSH1 0x20 ADD DUP4 DUP2 MSTORE POP SWAP1 POP PUSH1 0x1 DUP2 SWAP1 DUP1 PUSH1 0x1 DUP2 SLOAD ADD DUP1 DUP3 SSTORE DUP1 SWAP2 POP POP PUSH1 0x1 SWAP1 SUB SWAP1 PUSH0 MSTORE PUSH1 0x20 PUSH0 KECCAK256 SWAP1 PUSH1 0x5 MUL ADD PUSH0 SWAP1 SWAP2 SWAP1 SWAP2 SWAP1 SWAP2 POP PUSH0 DUP3 ADD MLOAD DUP2 PUSH0 ADD SSTORE PUSH1 0x20 DUP3 ADD MLOAD DUP2 PUSH1 0x1 ADD SWAP1 DUP2 PUSH2 0x150 SWAP2 SWAP1 PUSH2 0x8EB JUMP JUMPDEST POP PUSH1 0x40 DUP3 ADD MLOAD DUP2 PUSH1 0x2 ADD SWAP1 DUP2 PUSH2 0x166 SWAP2 SWAP1 PUSH2 0x8EB JUMP JUMPDEST POP PUSH1 0x60 DUP3 ADD MLOAD DUP2 PUSH1 0x3 ADD SWAP1 DUP2 PUSH2 0x17C SWAP2 SWAP1 PUSH2 0x8EB JUMP JUMPDEST POP PUSH1 0x80 DUP3 ADD MLOAD DUP2 PUSH1 0x4 ADD SSTORE POP POP POP POP POP POP POP POP JUMP JUMPDEST DUP1 PUSH0 DUP2 SWAP1 SSTORE POP PUSH0 PUSH1 0x5 SWAP1 POP POP POP JUMP JUMPDEST PUSH1 0x1 DUP2 DUP2 SLOAD DUP2 LT PUSH2 0x1AF JUMPI PUSH0 DUP1 REVERT JUMPDEST SWAP1 PUSH0 MSTORE PUSH1 0x20 PUSH0 KECCAK256 SWAP1 PUSH1 0x5 MUL ADD PUSH0 SWAP2 POP SWAP1 POP DUP1 PUSH0 ADD SLOAD SWAP1 DUP1 PUSH1 0x1 ADD DUP1 SLOAD PUSH2 0x1D4 SWAP1 PUSH2 0x71E JUMP JUMPDEST DUP1 PUSH1 0x1F ADD PUSH1 0x20 DUP1 SWAP2 DIV MUL PUSH1 0x20 ADD PUSH1 0x40 MLOAD SWAP1 DUP2 ADD PUSH1 0x40 MSTORE DUP1 SWAP3 SWAP2 SWAP1 DUP2 DUP2 MSTORE PUSH1 0x20 ADD DUP3 DUP1 SLOAD PUSH2 0x200 SWAP1 PUSH2 0x71E JUMP JUMPDEST DUP1 ISZERO PUSH2 0x24B JUMPI DUP1 PUSH1 0x1F LT PUSH2 0x222 JUMPI PUSH2 0x100 DUP1 DUP4 SLOAD DIV MUL DUP4 MSTORE SWAP2 PUSH1 0x20 ADD SWAP2 PUSH2 0x24B JUMP JUMPDEST DUP3 ADD SWAP2 SWAP1 PUSH0 MSTORE PUSH1 0x20 PUSH0 KECCAK256 SWAP1 JUMPDEST DUP2 SLOAD DUP2 MSTORE SWAP1 PUSH1 0x1 ADD SWAP1 PUSH1 0x20 ADD DUP1 DUP4 GT PUSH2 0x22E JUMPI DUP3 SWAP1 SUB PUSH1 0x1F AND DUP3 ADD SWAP2 JUMPDEST POP POP POP POP POP SWAP1 DUP1 PUSH1 0x2 ADD DUP1 SLOAD PUSH2 0x260 SWAP1 PUSH2 0x71E JUMP JUMPDEST DUP1 PUSH1 0x1F ADD PUSH1 0x20 DUP1 SWAP2 DIV MUL PUSH1 0x20 ADD PUSH1 0x40 MLOAD SWAP1 DUP2 ADD PUSH1 0x40 MSTORE DUP1 SWAP3 SWAP2 SWAP1 DUP2 DUP2 MSTORE PUSH1 0x20 ADD DUP3 DUP1 SLOAD PUSH2 0x28C SWAP1 PUSH2 0x71E JUMP JUMPDEST DUP1 ISZERO PUSH2 0x2D7 JUMPI DUP1 PUSH1 0x1F LT PUSH2 0x2AE JUMPI PUSH2 0x100 DUP1 DUP4 SLOAD DIV MUL DUP4 MSTORE SWAP2 PUSH1 0x20 ADD SWAP2 PUSH2 0x2D7 JUMP JUMPDEST DUP3 ADD SWAP2 SWAP1 PUSH0 MSTORE PUSH1 0x20 PUSH0 KECCAK256 SWAP1 JUMPDEST DUP2 SLOAD DUP2 MSTORE SWAP1 PUSH1 0x1 ADD SWAP1 PUSH1 0x20 ADD DUP1 DUP4 GT PUSH2 0x2BA JUMPI DUP3 SWAP1 SUB PUSH1 0x1F AND DUP3 ADD SWAP2 JUMPDEST POP POP POP POP POP SWAP1 DUP1 PUSH1 0x3 ADD DUP1 SLOAD PUSH2 0x2EC SWAP1 PUSH2 0x71E JUMP JUMPDEST DUP1 PUSH1 0x1F ADD PUSH1 0x20 DUP1 SWAP2 DIV MUL PUSH1 0x20 ADD PUSH1 0x40 MLOAD SWAP1 DUP2 ADD PUSH1 0x40 MSTORE DUP1 SWAP3 SWAP2 SWAP1 DUP2 DUP2 MSTORE PUSH1 0x20 ADD DUP3 DUP1 SLOAD PUSH2 0x318 SWAP1 PUSH2 0x71E JUMP JUMPDEST DUP1 ISZERO PUSH2 0x363 JUMPI DUP1 PUSH1 0x1F LT PUSH2 0x33A JUMPI PUSH2 0x100 DUP1 DUP4 SLOAD DIV MUL DUP4 MSTORE SWAP2 PUSH1 0x20 ADD SWAP2 PUSH2 0x363 JUMP JUMPDEST DUP3 ADD SWAP2 SWAP1 PUSH0 MSTORE PUSH1 0x20 PUSH0 KECCAK256 SWAP1 JUMPDEST DUP2 SLOAD DUP2 MSTORE SWAP1 PUSH1 0x1 ADD SWAP1 PUSH1 0x20 ADD DUP1 DUP4 GT PUSH2 0x346 JUMPI DUP3 SWAP1 SUB PUSH1 0x1F AND DUP3 ADD SWAP2 JUMPDEST POP POP POP POP POP SWAP1 DUP1 PUSH1 0x4 ADD SLOAD SWAP1 POP DUP6 JUMP JUMPDEST PUSH0 DUP2 SWAP1 POP SWAP2 SWAP1 POP JUMP JUMPDEST PUSH2 0x385 DUP2 PUSH2 0x373 JUMP JUMPDEST DUP3 MSTORE POP POP JUMP JUMPDEST PUSH0 PUSH1 0x20 DUP3 ADD SWAP1 POP PUSH2 0x39E PUSH0 DUP4 ADD DUP5 PUSH2 0x37C JUMP JUMPDEST SWAP3 SWAP2 POP POP JUMP JUMPDEST PUSH0 PUSH1 0x40 MLOAD SWAP1 POP SWAP1 JUMP JUMPDEST PUSH0 DUP1 REVERT JUMPDEST PUSH0 DUP1 REVERT JUMPDEST PUSH0 DUP1 REVERT JUMPDEST PUSH0 DUP1 REVERT JUMPDEST PUSH0 PUSH1 0x1F NOT PUSH1 0x1F DUP4 ADD AND SWAP1 POP SWAP2 SWAP1 POP JUMP JUMPDEST PUSH32 0x4E487B7100000000000000000000000000000000000000000000000000000000 PUSH0 MSTORE PUSH1 0x41 PUSH1 0x4 MSTORE PUSH1 0x24 PUSH0 REVERT JUMPDEST PUSH2 0x403 DUP3 PUSH2 0x3BD JUMP JUMPDEST DUP2 ADD DUP2 DUP2 LT PUSH8 0xFFFFFFFFFFFFFFFF DUP3 GT OR ISZERO PUSH2 0x422 JUMPI PUSH2 0x421 PUSH2 0x3CD JUMP JUMPDEST JUMPDEST DUP1 PUSH1 0x40 MSTORE POP POP POP JUMP JUMPDEST PUSH0 PUSH2 0x434 PUSH2 0x3A4 JUMP JUMPDEST SWAP1 POP PUSH2 0x440 DUP3 DUP3 PUSH2 0x3FA JUMP JUMPDEST SWAP2 SWAP1 POP JUMP JUMPDEST PUSH0 PUSH8 0xFFFFFFFFFFFFFFFF DUP3 GT ISZERO PUSH2 0x45F JUMPI PUSH2 0x45E PUSH2 0x3CD JUMP JUMPDEST JUMPDEST PUSH2 0x468 DUP3 PUSH2 0x3BD JUMP JUMPDEST SWAP1 POP PUSH1 0x20 DUP2 ADD SWAP1 POP SWAP2 SWAP1 POP JUMP JUMPDEST DUP3 DUP2 DUP4 CALLDATACOPY PUSH0 DUP4 DUP4 ADD MSTORE POP POP POP JUMP JUMPDEST PUSH0 PUSH2 0x495 PUSH2 0x490 DUP5 PUSH2 0x445 JUMP JUMPDEST PUSH2 0x42B JUMP JUMPDEST SWAP1 POP DUP3 DUP2 MSTORE PUSH1 0x20 DUP2 ADD DUP5 DUP5 DUP5 ADD GT ISZERO PUSH2 0x4B1 JUMPI PUSH2 0x4B0 PUSH2 0x3B9 JUMP JUMPDEST JUMPDEST PUSH2 0x4BC DUP5 DUP3 DUP6 PUSH2 0x475 JUMP JUMPDEST POP SWAP4 SWAP3 POP POP POP JUMP JUMPDEST PUSH0 DUP3 PUSH1 0x1F DUP4 ADD SLT PUSH2 0x4D8 JUMPI PUSH2 0x4D7 PUSH2 0x3B5 JUMP JUMPDEST JUMPDEST DUP2 CALLDATALOAD PUSH2 0x4E8 DUP5 DUP3 PUSH1 0x20 DUP7 ADD PUSH2 0x483 JUMP JUMPDEST SWAP2 POP POP SWAP3 SWAP2 POP POP JUMP JUMPDEST PUSH2 0x4FA DUP2 PUSH2 0x373 JUMP JUMPDEST DUP2 EQ PUSH2 0x504 JUMPI PUSH0 DUP1 REVERT JUMPDEST POP JUMP JUMPDEST PUSH0 DUP2 CALLDATALOAD SWAP1 POP PUSH2 0x515 DUP2 PUSH2 0x4F1 JUMP JUMPDEST SWAP3 SWAP2 POP POP JUMP JUMPDEST PUSH0 DUP1 PUSH0 DUP1 PUSH0 PUSH1 0xA0 DUP7 DUP9 SUB SLT ISZERO PUSH2 0x534 JUMPI PUSH2 0x533 PUSH2 0x3AD JUMP JUMPDEST JUMPDEST PUSH0 DUP7 ADD CALLDATALOAD PUSH8 0xFFFFFFFFFFFFFFFF DUP2 GT ISZERO PUSH2 0x551 JUMPI PUSH2 0x550 PUSH2 0x3B1 JUMP JUMPDEST JUMPDEST PUSH2 0x55D DUP9 DUP3 DUP10 ADD PUSH2 0x4C4 JUMP JUMPDEST SWAP6 POP POP PUSH1 0x20 PUSH2 0x56E DUP9 DUP3 DUP10 ADD PUSH2 0x507 JUMP JUMPDEST SWAP5 POP POP PUSH1 0x40 DUP7 ADD CALLDATALOAD PUSH8 0xFFFFFFFFFFFFFFFF DUP2 GT ISZERO PUSH2 0x58F JUMPI PUSH2 0x58E PUSH2 0x3B1 JUMP JUMPDEST JUMPDEST PUSH2 0x59B DUP9 DUP3 DUP10 ADD PUSH2 0x4C4 JUMP JUMPDEST SWAP4 POP POP PUSH1 0x60 DUP7 ADD CALLDATALOAD PUSH8 0xFFFFFFFFFFFFFFFF DUP2 GT ISZERO PUSH2 0x5BC JUMPI PUSH2 0x5BB PUSH2 0x3B1 JUMP JUMPDEST JUMPDEST PUSH2 0x5C8 DUP9 DUP3 DUP10 ADD PUSH2 0x4C4 JUMP JUMPDEST SWAP3 POP POP PUSH1 0x80 PUSH2 0x5D9 DUP9 DUP3 DUP10 ADD PUSH2 0x507 JUMP JUMPDEST SWAP2 POP POP SWAP3 SWAP6 POP SWAP3 SWAP6 SWAP1 SWAP4 POP JUMP JUMPDEST PUSH0 PUSH1 0x20 DUP3 DUP5 SUB SLT ISZERO PUSH2 0x5FB JUMPI PUSH2 0x5FA PUSH2 0x3AD JUMP JUMPDEST JUMPDEST PUSH0 PUSH2 0x608 DUP5 DUP3 DUP6 ADD PUSH2 0x507 JUMP JUMPDEST SWAP2 POP POP SWAP3 SWAP2 POP POP JUMP JUMPDEST PUSH0 DUP2 MLOAD SWAP1 POP SWAP2 SWAP1 POP JUMP JUMPDEST PUSH0 DUP3 DUP3 MSTORE PUSH1 0x20 DUP3 ADD SWAP1 POP SWAP3 SWAP2 POP POP JUMP JUMPDEST PUSH0 JUMPDEST DUP4 DUP2 LT ISZERO PUSH2 0x648 JUMPI DUP1 DUP3 ADD MLOAD DUP2 DUP5 ADD MSTORE PUSH1 0x20 DUP2 ADD SWAP1 POP PUSH2 0x62D JUMP JUMPDEST PUSH0 DUP5 DUP5 ADD MSTORE POP POP POP POP JUMP JUMPDEST PUSH0 PUSH2 0x65D DUP3 PUSH2 0x611 JUMP JUMPDEST PUSH2 0x667 DUP2 DUP6 PUSH2 0x61B JUMP JUMPDEST SWAP4 POP PUSH2 0x677 DUP2 DUP6 PUSH1 0x20 DUP7 ADD PUSH2 0x62B JUMP JUMPDEST PUSH2 0x680 DUP2 PUSH2 0x3BD JUMP JUMPDEST DUP5 ADD SWAP2 POP POP SWAP3 SWAP2 POP POP JUMP JUMPDEST PUSH0 PUSH1 0xA0 DUP3 ADD SWAP1 POP PUSH2 0x69E PUSH0 DUP4 ADD DUP9 PUSH2 0x37C JUMP JUMPDEST DUP2 DUP2 SUB PUSH1 0x20 DUP4 ADD MSTORE PUSH2 0x6B0 DUP2 DUP8 PUSH2 0x653 JUMP JUMPDEST SWAP1 POP DUP2 DUP2 SUB PUSH1 0x40 DUP4 ADD MSTORE PUSH2 0x6C4 DUP2 DUP7 PUSH2 0x653 JUMP JUMPDEST SWAP1 POP DUP2 DUP2 SUB PUSH1 0x60 DUP4 ADD MSTORE PUSH2 0x6D8 DUP2 DUP6 PUSH2 0x653 JUMP JUMPDEST SWAP1 POP PUSH2 0x6E7 PUSH1 0x80 DUP4 ADD DUP5 PUSH2 0x37C JUMP JUMPDEST SWAP7 SWAP6 POP POP POP POP POP POP JUMP JUMPDEST PUSH32 0x4E487B7100000000000000000000000000000000000000000000000000000000 PUSH0 MSTORE PUSH1 0x22 PUSH1 0x4 MSTORE PUSH1 0x24 PUSH0 REVERT JUMPDEST PUSH0 PUSH1 0x2 DUP3 DIV SWAP1 POP PUSH1 0x1 DUP3 AND DUP1 PUSH2 0x735 JUMPI PUSH1 0x7F DUP3 AND SWAP2 POP JUMPDEST PUSH1 0x20 DUP3 LT DUP2 SUB PUSH2 0x748 JUMPI PUSH2 0x747 PUSH2 0x6F1 JUMP JUMPDEST JUMPDEST POP SWAP2 SWAP1 POP JUMP JUMPDEST PUSH0 DUP2 SWAP1 POP DUP2 PUSH0 MSTORE PUSH1 0x20 PUSH0 KECCAK256 SWAP1 POP SWAP2 SWAP1 POP JUMP JUMPDEST PUSH0 PUSH1 0x20 PUSH1 0x1F DUP4 ADD DIV SWAP1 POP SWAP2 SWAP1 POP JUMP JUMPDEST PUSH0 DUP3 DUP3 SHL SWAP1 POP SWAP3 SWAP2 POP POP JUMP JUMPDEST PUSH0 PUSH1 0x8 DUP4 MUL PUSH2 0x7AA PUSH32 0xFFFFFFFFFFFFFFFFFFFFFFFFFFFFFFFFFFFFFFFFFFFFFFFFFFFFFFFFFFFFFFFF DUP3 PUSH2 0x76F JUMP JUMPDEST PUSH2 0x7B4 DUP7 DUP4 PUSH2 0x76F JUMP JUMPDEST SWAP6 POP DUP1 NOT DUP5 AND SWAP4 POP DUP1 DUP7 AND DUP5 OR SWAP3 POP POP POP SWAP4 SWAP3 POP POP POP JUMP JUMPDEST PUSH0 DUP2 SWAP1 POP SWAP2 SWAP1 POP JUMP JUMPDEST PUSH0 PUSH2 0x7EF PUSH2 0x7EA PUSH2 0x7E5 DUP5 PUSH2 0x373 JUMP JUMPDEST PUSH2 0x7CC JUMP JUMPDEST PUSH2 0x373 JUMP JUMPDEST SWAP1 POP SWAP2 SWAP1 POP JUMP JUMPDEST PUSH0 DUP2 SWAP1 POP SWAP2 SWAP1 POP JUMP JUMPDEST PUSH2 0x808 DUP4 PUSH2 0x7D5 JUMP JUMPDEST PUSH2 0x81C PUSH2 0x814 DUP3 PUSH2 0x7F6 JUMP JUMPDEST DUP5 DUP5 SLOAD PUSH2 0x77B JUMP JUMPDEST DUP3 SSTORE POP POP POP POP JUMP JUMPDEST PUSH0 SWAP1 JUMP JUMPDEST PUSH2 0x830 PUSH2 0x824 JUMP JUMPDEST PUSH2 0x83B DUP2 DUP5 DUP5 PUSH2 0x7FF JUMP JUMPDEST POP POP POP JUMP JUMPDEST JUMPDEST DUP2 DUP2 LT ISZERO PUSH2 0x85E JUMPI PUSH2 0x853 PUSH0 DUP3 PUSH2 0x828 JUMP JUMPDEST PUSH1 0x1 DUP2 ADD SWAP1 POP PUSH2 0x841 JUMP JUMPDEST POP POP JUMP JUMPDEST PUSH1 0x1F DUP3 GT ISZERO PUSH2 0x8A3 JUMPI PUSH2 0x874 DUP2 PUSH2 0x74E JUMP JUMPDEST PUSH2 0x87D DUP5 PUSH2 0x760 JUMP JUMPDEST DUP2 ADD PUSH1 0x20 DUP6 LT ISZERO PUSH2 0x88C JUMPI DUP2 SWAP1 POP JUMPDEST PUSH2 0x8A0 PUSH2 0x898 DUP6 PUSH2 0x760 JUMP JUMPDEST DUP4 ADD DUP3 PUSH2 0x840 JUMP JUMPDEST POP POP JUMPDEST POP POP POP JUMP JUMPDEST PUSH0 DUP3 DUP3 SHR SWAP1 POP SWAP3 SWAP2 POP POP JUMP JUMPDEST PUSH0 PUSH2 0x8C3 PUSH0 NOT DUP5 PUSH1 0x8 MUL PUSH2 0x8A8 JUMP JUMPDEST NOT DUP1 DUP4 AND SWAP2 POP POP SWAP3 SWAP2 POP POP JUMP JUMPDEST PUSH0 PUSH2 0x8DB DUP4 DUP4 PUSH2 0x8B4 JUMP JUMPDEST SWAP2 POP DUP3 PUSH1 0x2 MUL DUP3 OR SWAP1 POP SWAP3 SWAP2 POP POP JUMP JUMPDEST PUSH2 0x8F4 DUP3 PUSH2 0x611 JUMP JUMPDEST PUSH8 0xFFFFFFFFFFFFFFFF DUP2 GT ISZERO PUSH2 0x90D JUMPI PUSH2 0x90C PUSH2 0x3CD JUMP JUMPDEST JUMPDEST PUSH2 0x917 DUP3 SLOAD PUSH2 0x71E JUMP JUMPDEST PUSH2 0x922 DUP3 DUP3 DUP6 PUSH2 0x862 JUMP JUMPDEST PUSH0 PUSH1 0x20 SWAP1 POP PUSH1 0x1F DUP4 GT PUSH1 0x1 DUP2 EQ PUSH2 0x953 JUMPI PUSH0 DUP5 ISZERO PUSH2 0x941 JUMPI DUP3 DUP8 ADD MLOAD SWAP1 POP JUMPDEST PUSH2 0x94B DUP6 DUP3 PUSH2 0x8D0 JUMP JUMPDEST DUP7 SSTORE POP PUSH2 0x9B2 JUMP JUMPDEST PUSH1 0x1F NOT DUP5 AND PUSH2 0x961 DUP7 PUSH2 0x74E JUMP JUMPDEST PUSH0 JUMPDEST DUP3 DUP2 LT ISZERO PUSH2 0x988 JUMPI DUP5 DUP10 ADD MLOAD DUP3 SSTORE PUSH1 0x1 DUP3 ADD SWAP2 POP PUSH1 0x20 DUP6 ADD SWAP5 POP PUSH1 0x20 DUP2 ADD SWAP1 POP PUSH2 0x963 JUMP JUMPDEST DUP7 DUP4 LT ISZERO PUSH2 0x9A5 JUMPI DUP5 DUP10 ADD MLOAD PUSH2 0x9A1 PUSH1 0x1F DUP10 AND DUP3 PUSH2 0x8B4 JUMP JUMPDEST DUP4 SSTORE POP JUMPDEST PUSH1 0x1 PUSH1 0x2 DUP9 MUL ADD DUP9 SSTORE POP POP POP JUMPDEST POP POP POP POP POP POP JUMP INVALID LOG2 PUSH5 0x6970667358 0x22 SLT KECCAK256 DUP3 COINBASE 0xD5 RETURNDATASIZE SUB PUSH20 0xA456598C0DC198395A14B8CE100817C09B323894 BYTE PUSH10 0x59E5420564736F6C6343 STOP ADDMOD OR STOP CALLER "
		},
		"gasEstimates": {
			"creation": {
				"codeDepositCost": "508800",
				"executionCost": "541",
				"totalCost": "509341"
			},
			"external": {
				"addPerson(string,uint256,string,string,uint256)": "infinite",
				"people(uint256)": "infinite",
				"retrieve()": "2410",
				"store(uint256)": "22548"
			}
		},
		"methodIdentifiers": {
			"addPerson(string,uint256,string,string,uint256)": "42233cc2",
			"people(uint256)": "9e7a13ad",
			"retrieve()": "2e64cec1",
			"store(uint256)": "6057361d"
		}
	},
	"abi": [
		{
			"inputs": [
				{
					"internalType": "string",
					"name": "_name",
					"type": "string"
				},
				{
					"internalType": "uint256",
					"name": "_favoriteNumber",
					"type": "uint256"
				},
				{
					"internalType": "string",
					"name": "_color",
					"type": "string"
				},
				{
					"internalType": "string",
					"name": "_fav_friend",
					"type": "string"
				},
				{
					"internalType": "uint256",
					"name": "_age",
					"type": "uint256"
				}
			],
			"name": "addPerson",
			"outputs": [],
			"stateMutability": "nonpayable",
			"type": "function"
		},
		{
			"inputs": [
				{
					"internalType": "uint256",
					"name": "",
					"type": "uint256"
				}
			],
			"name": "people",
			"outputs": [
				{
					"internalType": "uint256",
					"name": "favoriteNumber",
					"type": "uint256"
				},
				{
					"internalType": "string",
					"name": "name",
					"type": "string"
				},
				{
					"internalType": "string",
					"name": "color",
					"type": "string"
				},
				{
					"internalType": "string",
					"name": "fav_friend",
					"type": "string"
				},
				{
					"internalType": "uint256",
					"name": "age",
					"type": "uint256"
				}
			],
			"stateMutability": "view",
			"type": "function"
		},
		{
			"inputs": [],
			"name": "retrieve",
			"outputs": [
				{
					"internalType": "uint256",
					"name": "",
					"type": "uint256"
				}
			],
			"stateMutability": "view",
			"type": "function"
		},
		{
			"inputs": [
				{
					"internalType": "uint256",
					"name": "_favoriteNumber",
					"type": "uint256"
				}
			],
			"name": "store",
			"outputs": [],
			"stateMutability": "nonpayable",
			"type": "function"
		}
	]
}